:020000040800F2
:10000000A85600205D020008B5350008CD30000874
:1000100081350008E90B0008F942000800000000E3
:100020000000000000000000000000009D0100082A
:100030004D0C000800000000F9010008393C0008E0
:1000400077020008770200087702000877020008AC
:10005000770200087702000877020008770200089C
:10006000770200087702000877020008770200088C
:10007000770200087702000877020008770200087C
:10008000770200087702000877020008110C0008C8
:10009000ED0B0008F90B0008050C00084F0C0008D8
:1000A000770200087702000877020008770200084C
:1000B000F93C0008053D00087702000877020008B7
:1000C000770200087702000877020008770200082C
:1000D00077020008714200087702000877020008E2
:1000E000770200087702000877020008770200080C
:1000F00077020008770200087702000877020008FC
:1001000077020008770200087702000877020008EB
:10011000F13F0008FD3F0008770200087702000861
:1001200077020008770200087702000877020008CB
:10013000770200087702000877020008410C0008E7
:100140001D0C0008290C0008350C00087702000877
:10015000770200087702000877020008770200089B
:10016000770200087702000877020008770200088B
:1001700077020008770200087702000800000000FC
:100180007702000877020008DFF80CD000F052F97F
:100190000048004701530008A85600202C4B19685E
:1001A0000868B0E8F04F80F30988BFF36F8F4FF015
:1001B000000080F3118870470000000008480068C4
:1001C000006880F308884FF0000080F3148862B65E
:1001D00061B6BFF34F8FBFF36F8F00DF00BF00BF6B
:1001E00008ED00E0DFF80C00016841F470010160E7
:1001F000704700BF88ED00E0EFF30980BFF36F8F19
:10020000134B1A681EF0100F08BF20ED108A20E96A
:10021000F04F106009B44FF0500080F31188BFF325
:100220004F8FBFF36F8F06F02DF84FF0000080F373
:10023000118809BC19680868B0E8F04F1EF0100F6B
:1002400008BFB0EC108A80F30988BFF36F8F704746
:100250002C000020EFF3058070470000064880471F
:1002600006480047FEE7FEE7FEE7FEE7FEE7FEE79B
:10027000FEE7FEE7FEE7FEE7E93C0008890100082B
:100280002DE9F05F0546002092469B4688460646CB
:10029000814640241BE0284641464746224600F05E
:1002A00082F853465A46C01A914110D31146184657
:1002B000224600F069F82D1A67EB01084F462246E6
:1002C0000120002100F060F817EB00094E41201ECC
:1002D000A4F10104DFDC484631462A464346BDE826
:1002E000F09F40EA01039B0703D009E008C9121FF1
:1002F00008C0042AFAD203E011F8013B00F8013BE0
:10030000521EF9D27047D2B201E000F8012B491E0B
:10031000FBD270470022F6E710B513460A460446A2
:100320001946FFF7F0FF204610BD00F0004230F004
:1003300000400AD0C10D01F56071C0F3160042EA19
:100340000151C20840071143704700200146704721
:1003500001F0004330B421F0004150EA010206D020
:100360000A0DA2F56072C1F31301002A02DC30BC51
:1003700000207047440F44EAC104C100E01830BCBB
:1003800000EBC25000F01FB8202A04DB203A00FA2C
:1003900002F1002070479140C2F1200320FA03F3DC
:1003A000194390407047202A04DB203A21FA02F0DA
:1003B0000021704721FA02F3D040C2F1200291409F
:1003C0000843194670470029A8BF7047401C4900E0
:1003D00008BF20F00100704710B4B0FA80FC00FAAA
:1003E0000CF050EA010404BF10BC704749B1CCF1D5
:1003F000200421FA04F411FA0CF118BF0121214361
:100400000843A3EB0C01CB1D4FEA00614FEA10201B
:1004100042BF002010BC704700EBC35010440029BD
:10042000A4BF10BC7047401C490008BF20F0010069
:1004300010BC7047064C074D06E0E06840F0010331
:1004400094E8070098471034AC42F6D3FFF7A0FEBB
:100450006C6F00088C6F00082DE9FE4F804681EA22
:100460000300C00F0C46009021F0004123F000452E
:10047000B8EB0200A94105D24046214690461C46F1
:100480000B46024623F00040104347D0270DC7F328
:100490000A00C3F30A510290401A019040286BDA17
:1004A000C3F3130040F4801B0098924620B1002350
:1004B000D2EB030A63EB0B0B01985946C0F14002E3
:1004C0005046FFF761FF06460D4650465946019AD1
:1004D00000F087F910EB08006141002487EA11520F
:1004E00084EAE7731A4340D0009A62B3019A012A62
:1004F0004FEA075215DC001B61EB02014FF000428E
:1005000002EA0752CDE90042001C41F58011324653
:100510002B4600F087F903B0BDE8F08F4046214636
:10052000F9E7001B61EB0201001C41F58013001884
:100530005B412018A2F5001747EB030140EAD57094
:10054000B6196D4111E06D084FEA360645EAC075EF
:100550004FEA0752001B61EB0201001C41F58011BC
:1005600049084FEA30000019514132462B4603B08A
:10057000BDE8F04F00F047B9009801224000002389
:10058000D0EB020263EBE073009821464FEAE0747F
:10059000B8EB000061EB0401E9E783F000435BE79F
:1005A00081F0004158E72DE9FE4F81EA030404F091
:1005B000004421F0004100944FF0000B23F0004371
:1005C00050EA01045ED052EA03045BD0C3F30A543C
:1005D000C1F30A552C44A4F2F3340194A0FB025455
:1005E000C1F3130141F48011C3F3130343F48013E7
:1005F00001FB024400FB034E840A970A44EA81543B
:1006000047EA8357A4FB076802958D0A05FB078517
:100610004FEA932C04FB0C542705029D4FEA065821
:1006200047EA1637B5EB08056EEB070C870E920EFE
:1006300047EA811742EA8312A7FB0201B6EB0B01DE
:1006400064EB00042B0D43EA0C335E1844EB1C50A2
:10065000DA465146E7FB0201C5F313044FEA0B33B8
:1006600043EA14534FEA0432019C43EA0603A4F11F
:100670000C040294009CCDE900B400F0D3F803B060
:10068000BDE8F08F00200146F9E72DE9F04D81EA41
:10069000030404F0004B21F0004514464FF0000A1B
:1006A00023F0004150EA050220D054EA01021DD097
:1006B000C5F30A570246C5F31303C1F31300C1F390
:1006C0000A5640F4801543F48013A7EB0608101B6C
:1006D000D64608F2FD3873EB050002D308F1010895
:1006E00001E092185B41B8F1000F03DA00200146E7
:1006F000BDE8F08D00204FF48011064684460EE0E0
:10070000171B73EB050705D3121B63EB05030643A9
:100710004CEA010C49084FEA300092185B4150EA5C
:100720000107EDD152EA030012D082EA040083EA05
:100730000501084305D0101BAB4106D2012200235E
:1007400006E000224FF0004302E06FF00102531078
:100750001AEB06004CEB085110EB0A0041EB0B01C1
:10076000BDE8F04D00F04FB80EB5C10F80EAE07063
:100770000844CA07002140F233438DE80E000A46C0
:100780000B4600F04FF803B000BD0EB540F2334108
:1007900002910021CDE900110A460B4600F042F813
:1007A00003B000BD70B5C1F30A5201F0004500244A
:1007B000C1F3130140F2FF3341F480119A4201DA90
:1007C000002070BD40F233439A42A2F2334203DC70
:1007D0005242FFF7E8FD00E090402C43F1D0404248
:1007E00070BD202A06DBCB17203A41FA02F043EA1B
:1007F000E07306E041FA02F3D040C2F120029140DA
:1008000008431946704710B5141E73F1000408DA46
:10081000401C41F1000192185B411A4301D120F0C4
:10082000010010BD2DE9F04D92469B4611B1B1FA81
:1008300081F202E0B0FA80F220329046FFF7A4FD88
:1008400004460F4640EA0A0041EA0B0153465A4665
:10085000084313D0114653EA010019D0C8F14002F1
:100860005046FFF7A0FD05460E4650465946424603
:10087000FFF78AFD084305D0012004E020463946F1
:10088000BDE8F08D0020054346EAE0762C4337436F
:100890000A986305E40AA0EB08000022FD0A44EA76
:1008A00047540A3002D500200146E9E70105101936
:1008B0006941DDE9084500196941BDE8F04DA2E74D
:1008C00030B58C1810F8012B12F00F0301D110F87D
:1008D000013B120906D110F8012B03E010F8015B6F
:1008E00001F8015B5B1EF9D101E001F8013B521EEA
:1008F000FBD1A142E6D3002030BD0000FEB5164674
:100900000A46002102911D46114604F081FB04466F
:1009100002AA3146684604F0B0FB02AA294668469E
:1009200004F0ABFB02986A46C3B20A2040EA841086
:1009300081B2024804F010FCFEBD0000340100202A
:100940002DE9FC410DF1200898E8F1008DF8001028
:100950008DF801208DF802308DF804408DF8055097
:100960008DF803008DF806608DF807704F2108237D
:100970006A46024804F0F0FBBDE8FC813401002027
:1009800008B50022009204F043FB0B2141EA8010DD
:1009900081B201236A46024804F0DEFB08BD000074
:1009A0003401002008B50022009204F031FB0E2132
:1009B00041EA801081B201236A46024804F0CCFB70
:1009C00008BD0000340100203EB515460A4600214E
:1009D0000291114604F01CFB044602AA294668460F
:1009E00004F04BFB02AA0021684604F046FB029883
:1009F0006A46C3B2072000EB841081B2014804F0BC
:100A0000ABFB3EBD340100203EB515460A46002131
:100A10000291114604F0FCFA044602AA29466846EF
:100A200004F02BFB02AA0021684604F026FB029882
:100A30006A46C3B2042000EB841081B2014804F07E
:100A40008BFB3EBD3401002070B516462DED028BA8
:100A500084B00A46002103911D46F0EE608A1146DB
:100A600004F0D6FA9FED158A0446012203A9F0EEA0
:100A7000480A684604F0E1FA012203A9F0EE480AA8
:100A8000B0EE680A684604F0D8FA03AA3146684610
:100A900004F008FB03AA2946684604F0E3FA039829
:100AA0006A46C3B20C2040EA841081B2044804F0C4
:100AB00053FB04B0BDEC028B70BD000000007A4413
:100AC000340100202DE9F04F00262DED048B83B07A
:100AD000F0EE608ADDE910A9B0EE409A1F4690461C
:100AE000DDF848B0029604F093FA2C4D84B22888C1
:100AF000E8B902AA4146684604F0B4FA02AA3946A7
:100B0000684604F0AFFA02AA5146684604F0CAFAF1
:100B100002AA4946684604F0C5FA02986A46C3B27A
:100B2000052000EB841081B21D4804F015FB2888D5
:100B3000022827D102AA5946684604F0B3FA9FED6D
:100B4000198A012202A9F0EE480AB0EE490A684665
:100B500004F073FA012202A9F0EE480AB0EE680A26
:100B6000684604F06AFA02AA0021684604F07AFA9C
:100B700002986A46C3B2102040EA841081B2084845
:100B800004F0EAFA2888401C00B22880022800DD20
:100B90002E8003B0BDEC048BBDE8F08F2401002053
:100BA0003401002000007A447CB515460A46002135
:100BB0000091114604F02CFA094C6A462946A0809F
:100BC00001A804F05AFA00984FF6FF71C3B2A0884A
:100BD00001AA01EA8011034804F0BEFA7CBD0000BE
:100BE0002401002034010020FEE70000014800F04D
:100BF0004EBA000034010020014800F048BA00005D
:100C000034010020014800F042BA00003401002005
:100C1000014800F03CBA000034010020014800F017
:100C200036BA00005C010020014800F030BA000034
:100C30005C010020014800F02ABA00005C0100209D
:100C4000014800F024BA00005C01002070478020B9
:100C500000F0EABD72B6FEE770B5444E444D002088
:100C600086F83100AB88002B58D06988002955D010
:100C70002A88002A52D0A2F2AA5240F2DC54642AF6
:100C800000D82C80A1F2AA51642900D86C80E98890
:100C9000A1F2AA51642900D8EC8040F20E618B4287
:100CA00005D8E98840F2AA52914200D3AC802F497E
:100CB0009FED302ADFED301A91ED101AD1ED0F0AB9
:100CC00091ED110A91F9301008B1012901D0D8B184
:100CD0001CE0288802EE900AF8EE622A32EEC23A50
:100CE000C3EE212A22EE811A86ED031A688801EEEE
:100CF000100AB8EE411A71EE422A82EEA11A61EE94
:100D0000200AC6ED040A24E0012908D09FED1B0A41
:100D100086ED030A86ED040A86ED050A70BD288873
:100D200002EE900AF8EE622A32EEC23AC3EE212AAF
:100D300022EE811A86ED011A688801EE100AB8EEDB
:100D4000411A71EE422A82EEA11A61EE200AC6ED26
:100D5000020AE88800EE900AF8EE600A70EEC20A15
:100D600080EEA11A21EE000AD6E70000284D0020EF
:100D7000984D00200080BB440000FA4300000000B2
:100D800090F82020012A07D0022A05D0416A41F4B8
:100D90008021416201207047006842690A43426134
:100DA00000207047F0B590F820500468A468012D29
:100DB00005D0022D03D0416A41F4802153E014F0A4
:100DC000406F01D1E5004BD5C4F30164022C03D977
:100DD000416A41F4000146E00125A5401D608B6891
:100DE0004FF4C0759BB1CE6833434E6843EAC603E7
:100DF000066805EB0417F3514FF4C273076803EB61
:100E000004130E69FE50097D012905D009E00E8802
:100E1000CB6843EA4653EBE70168CE5846F4807648
:100E2000CE501179D2F805304FF4C67641EA03234B
:100E3000016806EB04168B511178D2F801204FF4AB
:100E4000C47341EA0221026803EB0413D150006825
:100E500005EB0411425842F0010242500020F0BD5F
:100E6000416A41F4001141620120F0BD10B590F8D3
:100E70002020012A07D0022A05D0416A41F48021AE
:100E80004162012010BD3B48D0F8002242F001022F
:100E9000C0F80022D0F8002222F47C52C0F80022D0
:100EA000D0F800224B6A42EA0322C0F800220A7DF1
:100EB00002F01F0301229A40D0F81C329343C0F87D
:100EC0001C32CB69B3B9D0F80C329343C0F80C3262
:100ED0008C894B6864F31F434C6900EBC404C4F86D
:100EE00040320C890B6864F31F434C6900EBC40467
:100EF000C4F84432CB69012B16D1D0F80C3213431D
:100F0000C0F80C320C884B6864F31F434C6900EB4B
:100F1000C404C4F840320C89CB6864F31F434C69A5
:100F200000EBC404C4F844328B69002BD0F80432BF
:100F30000ED01343C0F804320B69002BD0F81432E2
:100F400008D01343C0F81432096A012904D008E01C
:100F50009343EFE79343F5E7D0F81C121143C0F831
:100F60001C12D0F8001221F00101C0F8001200207C
:100F700010BD000000640040704730B590F820407C
:100F8000012C05D0022C03D0416A41F480215DE0A0
:100F90000468002955D02469A40754D04FF4D874AC
:100FA000056804EB01142D5915F0040595600568DA
:100FB0002D594ED0ED08556005682C5904F00204F7
:100FC000D4604FF4DA74056804EB01142D5905F070
:100FD0000F05156105682D59C5F30725956105684D
:100FE0002C59240C54614FF4DC72046802EB01129A
:100FF000A4581C700468A458240A5C700468A4589F
:10100000240C9C700468A258120EDA704FF4DE7241
:10101000046802EB0112A4581C710468A458240A45
:101020005C710468A458240C9C710468A258120EC8
:10103000DA71006881B1016941F02001016100208D
:1010400030BDE468A8E7416A41F400114162012023
:1010500030BD6D0D1560AFE7C16841F02001C16082
:10106000EDE70246002092F82010012901D0022964
:101070000CD111688A68520100D501208A681201DA
:1010800000D5401C8968C90000D5401C70472DE977
:10109000F05F0546006800244669D0F80490876830
:1010A000D0F80CB0D0F810A0D0F81880F10748D0D4
:1010B000F90714D001218160B80703D5284600F054
:1010C0006CFA0CE0780702D54FF4006407E03807AB
:1010D00002D54FF4805402E0284600F05DFAF8058E
:1010E00016D529684FF480708860B80503D5284666
:1010F00000F055FA0CE0780502D544F4005407E0FE
:10110000380502D544F4804402E0284600F046FA4F
:10111000F80316D529684FF480308860B80303D5EA
:10112000284600F03EFA0CE0780302D544F400446F
:1011300007E0380302D544F4803402E0284600F08A
:101140002FFA300707D55FEACB6004D52968102055
:1011500044F40074C86070074FF0080707D55FEAD1
:101160000B7004D52868C760284600F0C9F9B0079D
:1011700006D52868C068800702D0284600F0C2F96A
:10118000700607D55FEACA6004D52968102044F4C8
:1011900080640861B00607D55FEA0A7004D5286844
:1011A0000761284600F0CAF9F00606D528680069EC
:1011B000800702D0284600F0C2F9B00308D55FEAE4
:1011C000C96005D5296810204860284600F0B8F9A4
:1011D000F00307D55FEA097004D528684760284600
:1011E00000F0E0F9300446D55FEA497040D5F005DB
:1011F00004D55FEAC87001D044F00104B00504D5FD
:101200005FEA887001D544F00204700504D55FEAF6
:10121000487001D544F00404300529D518F0700F4A
:1012200026D008F07000402815D006DC102809D020
:1012300020280AD0302816D10AE050280ED0602885
:1012400011D10EE044F008040DE044F010040AE06F
:1012500044F0200407E044F0400404E044F080043B
:1012600001E044F480742868816921F07001816193
:10127000296804204860002C05D0686A2043686211
:101280002846FFF779FEBDE8F09F70B5040003D053
:1012900094F8200010B104E0012070BD204600F059
:1012A00081F82068016841F00101016000F0B6FB9F
:1012B0000546052604E000F0B1FB401B0A2811D8C2
:1012C00020684068C007F6D02068016821F002015C
:1012D000016000F0A3FB05460BE000F09FFB401B04
:1012E0000A2806D9606A40F40030606284F8206001
:1012F000D2E7206840688007EFD4207E012820686C
:1013000001683DD021F080010160607E01282068E5
:10131000016838D021F040010160A07E01282068DA
:10132000016833D021F020010160E07E01282068AF
:1013300001682ED041F010010160207F0128206853
:10134000016829D021F008010160607F0128206830
:10135000016824D021F004010160D4E902010843AE
:10136000D4E90412114308436168491E0843216807
:10137000C86100206062012084F82000002070BD58
:1013800041F08001C0E741F04001C5E741F0200194
:10139000CAE721F01001CFE741F00801D4E741F09E
:1013A0000401D9E7F0B587B0044614216846FEF77A
:1013B000B1FF4E494E4ADFF830E10868D4F800C06A
:1013C0004B4B02240325092610320027401CF4450C
:1013D0003BD10860012807D1106840F00070106010
:1013E000106800F000700590186840F00100186067
:1013F0001868694600F0010005904FF4C0508DE870
:101400009100CDE903563B4800F01AFA0022022170
:10141000132000F0ABFC132000F09BFC0022022103
:10142000142000F0A3FC142000F093FC0022022101
:10143000152000F09BFC152000F08BFC00220221FF
:10144000162000F093FC16204AE0DFF8ACE0F445EB
:1014500048D1D2F800C04CF0806CC2F800C0D2F87D
:1014600000C001280CF0806CCDF814C0086007D1D2
:10147000106840F000701060106800F00070059077
:10148000186840F0020018601868694600F0020011
:1014900005904FF440508DE89100CDE90356174870
:1014A00000F0CEF9002205213F2000F05FFC3F2034
:1014B00000F04FFC00220521402000F057FC4020A6
:1014C00000F047FC00220521412000F04FFC4120A4
:1014D00000F03FFC00220521422000F047FC4220A2
:1014E00000F037FC07B0F0BD006400401800002099
:1014F0003038024000000240006800400004024012
:101500007047000000B50B4987B0884210D10A4BE4
:101510006A4600210748FFF730FD0298002807D1EE
:1015200005490220891E0880891C684603F04AFE8E
:1015300007B000BD34010020E20000207047704772
:10154000704770B5044690F82000012804D0606A06
:1015500040F40020606217E0022084F82000206838
:10156000016821F00101016000F058FA05460DE024
:1015700000F054FA401B0A2808D9606A40F4003091
:101580006062052084F82000012070BD206840685A
:10159000C007EDD1606270BD7047704770477047FB
:1015A0007047704770472DE9F0410446876D00F0A1
:1015B00035FA054694F835000026022806D080202A
:1015C000606584F834600120BDE8F081206801681E
:1015D00021F0160101602068416921F0800141611C
:1015E000206C08B9A06C20B12068016821F00801C6
:1015F00001602068016821F0010101600CE000F049
:101600000DFA401B052807D920206065032084F8C7
:10161000350084F83460D7E720680068C007EED151
:1016200094F85C103F208840B860012084F83500B1
:1016300084F834600020C7E790F83510022903D001
:101640008021416501207047052180F83510006830
:10165000016821F00101016000207047406D704772
:1016600070B5044600F0DAF90546601C02D0044863
:101670000078044400F0D2F9401BA042FAD370BDB8
:101680001C0000202DE9F04FDFF8F0A08946002271
:101690004FF0010B4FF00F0C0BFA02F609EA0603AC
:1016A000B34265D122F003045444D4F808189507D6
:1016B0002F0F0CFA07F505EA01083149884201D1DC
:1016C000002123E02F49884201D101211EE02E494B
:1016D000884201D1022119E02C49884201D103211D
:1016E00014E02B49884201D104210FE029498842A6
:1016F00001D105210AE02849884201D1062105E0EF
:101700002649884201D1072100E00821B94041451E
:1017100015D1234F3968994339603F1D3968994382
:1017200039601F4F0C373968994339603F1F39685A
:1017300099433960D4F80818A943C4F80818036815
:1017400054000321A1408B430360D30800EB8303C3
:101750001D6A5407E70E0CFA07F4A5431D62C3681F
:101760008B43C3604368B343436083688B438360A8
:10177000521C102A90D3BDE8F08F000000300140C9
:10178000000002400004024000080240000C024039
:10179000001002400014024000180240001C0240E9
:1017A000003C014070B51E4C80280DD16169C00518
:1017B0002161426AE06840F27123584302EB001055
:1017C0006061A060401AA080607800250121012896
:1017D000A08840F6980205D0904202D36170A570AF
:1017E000257070BD904202D3A570217070BDA0F22B
:1017F000B63140F24C42914210D80A4AA17822F800
:101800001100491CC8B2A0700828EFD30549420056
:1018100001F11400FEF765FDA57070BD657070BD27
:10182000F8000020844D0020044910B50A680242E7
:1018300002D00860FFF7B6FF10BD0000143C014065
:101840002DE9F84FDFF89C910022A9F1040B032742
:101850004FF00F0C09F1040AABF1040E01250B68DF
:1018600095402B40AB426ED10C7904F00304012C5F
:1018700001D0022C15D18668540007FA04F826EA34
:101880000806D1F80C8008FA04F848EA0608C0F8FF
:1018900008804468AC430D79C5F300159540254395
:1018A00045600C79E443A40708D0C568540007FAE2
:1018B00004F6B5438E68A6402E43C6600C7904F04A
:1018C0000304022C11D1D40800EB8406356A5407B6
:1018D000E40E0CFA04F825EA0805D1F8108008FA9D
:1018E00004F848EA0508C6F820800568540007FA9D
:1018F00004F6B5430E7906F00306A6402E430660B3
:101900004C6814F4403F66D0374C256845F4804558
:101910002560246822F0030504F480440094334CCD
:1019200005EB0408D8F808589407260F0CFA06F4BB
:10193000A5432F4CA04201D1002424E02D4CA0420D
:1019400002D101241FE046E02B4CA04201D1022429
:1019500019E02A4CA04201D1032414E0284CA042F3
:1019600001D104240FE0274CA04201D105240AE054
:10197000254CA04201D1062405E0244CA04201D10F
:10198000072400E00824B4402C43C8F80848D9F8DC
:1019900000404D464E689C43F60200D51C432C6027
:1019A000DAF8004055464E689C43B60200D51C4309
:1019B0002C60DBF800405D464E689C43B60300D5C2
:1019C0001C432C60DEF8004075464E689C43F603CD
:1019D00000D51C432C60521C102AFFF43FAFBDE819
:1019E000F88F0000083C01404438024000300140BC
:1019F000000002400004024000080240000C0240C7
:101A0000001002400014024000180240001C024076
:101A10000AB1816170470904FBE700000148806852
:101A2000704700001C00002070B5040025D094F819
:101A30003D00002520B984F83C50204600F0B8F85D
:101A4000242084F83D002068016821F00101016034
:101A50002068016841F4004101602068016821F4B8
:101A60000041016000F06EFA4D4B6168994201D867
:101A70004C4900E04C49884201D2012070BD4B49DD
:101A80002268B0FBF1F1566826F03F060E4356601F
:101A900062689A4206D94FF4967251434FF47A72B3
:101AA000B1FBF2F12268491C166A26F03F06314369
:101AB00011626168994210D84900401EB0FBF1F2F2
:101AC000521CC2F30B02042A01D2042022E0B0FB14
:101AD000F1F0401CC0F30B001CE0A268F2B301EB74
:101AE000C10303EB0116431EB3FBF6F35B1C43F487
:101AF00080431B0549D092B301EBC10202EB0111F7
:101B0000401EB0FBF1F0401CC0F30B0040F48040DD
:101B100040F400402168CA694CF6FF739A431043B1
:101B2000C861D4E9071001432068026822F0C002AE
:101B300011430160D4E9030101432068826848F23F
:101B4000FF339A4311438160D4E9051001432068B3
:101B5000C26822F0FF021143C16001E00EE016E00E
:101B60002068016841F0010101602564202084F8AB
:101B70003D00256384F83E50002070BD01EB410616
:101B8000431EB3FBF6F35B1CB3E70120C2E701EB96
:101B90004101401EB0FBF1F0401CC0F30B00B7E761
:101BA000A086010080841E0000093D0040420F0015
:101BB00010B586B0044614216846FEF7ABFB144905
:101BC0002068884221D113480021026842F00202B5
:101BD0000260006800F0020005904FF44060009041
:101BE0001220CDE9010103200390042004906946EE
:101BF0000948FFF725FE07481030016841F48001CD
:101C00000160006800F48000059006B010BD00007F
:101C10000058004030380240000402400248816809
:101C200002781144816070471C0000200B4810B5F9
:101C3000016841F400710160016841F48061016054
:101C4000016841F480710160032000F0AFF80F20BB
:101C500000F006F800F050F8002010BD003C0240F3
:101C600030B505461F4887B00024016841F00201E5
:101C70000160006806A900F002000590684600F0C7
:101C800041F90398A8B100F05DF940001649174AE0
:101C9000B0FBF1F11648491E026040F2E732C0E99C
:101CA0000324C0E90114846100F092FB040003D016
:101CB00015E000F047F9E9E70D4800F007FC0400E3
:101CC0000DD11D2000F045F8102D07D20022294625
:101CD0001D2000F04BF80748056000E0012407B024
:101CE000204630BD4038024040420F000004004012
:101CF0000C040020200000200C4882B0016841F450
:101D000080410160006800F4804000900748001F97
:101D1000016841F0805101600068002200F08050AD
:101D200000900F21901E02B000F020B8443802400D
:101D300000280DDB00F01F020121914040098000C6
:101D400000F1E020C0F88011BFF34F8FBFF36F8F19
:101D50007047002809DB00F01F0201219140400973
:101D6000800000F1E020C0F800117047F0B40E4B85
:101D70001B68C3F30223C3F10704042C00D9042415
:101D80001D1D072D01D2002300E0DB1E012606FAEF
:101D900004F56D1E0D409D409E40761E164045EA9E
:101DA0000601F0BC02F022BB0CED00E0064A00F098
:101DB000070110684FF6FF03184040EA012003496D
:101DC00008431060704700000CED00E00000FA05C9
:101DD0002DE9F0470D46040065D0DFF81491D9F8DD
:101DE0000000EFB200F00700A84207D289F80070A7
:101DF000D9F8000000F00700A84254D120683D4EF9
:101E0000810712D5400703D5306840F4E0503060B8
:101E10002078000703D5306840F4604030603068B7
:101E2000A16820F0F000084330602078C0072DD072
:101E3000304960680839012812D0022813D00328DD
:101E400011D00968890700292DDA316821F00301D2
:101E500001433160FFF7E2FD804641F2883A0EE02F
:101E600009688903EFE709688901ECE7FFF7D6FD08
:101E7000A0EB0801514502D90320BDE8F087306886
:101E8000616800F00C00B0EB810FEFD1D9F80010C1
:101E9000484601F00701A94207D90770006800F021
:101EA0000700A84201D00120E7E72078400705D5C8
:101EB0003068E16820F4E050084330602078000783
:101EC00006D53068216920F4604040EAC1003060E6
:101ED00000F058F83168084AC1F30311515CC8405A
:101EE0000649086006480068FFF7BAFE0020C4E70C
:101EF000003C024008380240EC6D00082800002039
:101F0000200000200F2202600C4A136803F0030334
:101F10004360136803F0F0038360136803F4E05335
:101F2000C36012684FF4E05303EAD202026104482E
:101F3000006800F0070008607047000008380240A1
:101F4000003C02400448054900680968044AC1F39E
:101F50008221515CC84070472800002008380240A8
:101F6000FC6D00080448054900680968044AC1F38B
:101F70004231515CC84070472800002008380240B8
:101F8000FC6D0008154810B5006810F00C011448ED
:101F900013D0431004290FD008290ED10F4C241F51
:101FA000216801F03F022168490207D52068C0F38B
:101FB0008810A0FB030106E0184610BD2168C1F39C
:101FC0008811A1FB00010023FEF75AF92168C1F333
:101FD0000141491C4900B0FBF1F010BD0838024036
:101FE0000024F4002DE9F84F040075D02078DFF8C4
:101FF00038A3C007AAF1040548D00AF1040001681B
:10200000C1F38101012908D00068C0F381000228D2
:102010000AD1DAF80000400206D52868800335D5D9
:1020200060680028E1D031E06068B0F5803F10D0F2
:10203000B0F5A02F286810D020F4803028602868E0
:1020400020F4802028606068A0B1FFF7E7FC064616
:102050000CE0286840F48030F4E740F480202860E9
:10206000F7E7FFF7DBFC801B642871D82868800342
:10207000F7D50BE0FFF7D2FC064604E0FFF7CEFCF5
:10208000801B6428F1D828688003F7D42078DFF813
:102090009C9280074FF0000B3DD5A348001D0168BE
:1020A00011F00C0F08D00068C0F3810002280AD19B
:1020B000DAF80000400206D42868800715D5E068E9
:1020C000012809D111E0E068B8B10120C9F8000089
:1020D000FFF7A4FC064605E022E1FFF79FFC801B0A
:1020E0000228C2D828688007F7D52868216920F01F
:1020F000F80040EAC10028600DE0C9F800B0FFF721
:102100008DFC064604E0FFF789FC801B02281FD8DF
:1021100028688007F7D42078000722D5824F8448AA
:102120006169703771B101210160FFF777FC0646E4
:1021300004E0FFF773FC801B022809D83868800789
:10214000F7D50EE0C0F800B0FFF768FC064605E0E2
:1021500082E0FFF763FC801B02287DD83868800787
:10216000F7D42078400765D56F484FF000083C3021
:102170000068C0000BD46C483C30016841F08051CD
:10218000016000684FF0010800F080500090694F36
:102190003868C0050FD4386840F480703860FFF7A5
:1021A0003DFC064604E0FFF739FC801B022853D8AB
:1021B0003868C005F7D55C4FA0686C3701280FD090
:1021C0000528386810D020F001003860386820F009
:1021D00004003860A068B0B1FFF720FC06460EE0AE
:1021E000386840F00100F4E740F004003860F7E799
:1021F000FFF714FC811B41F28830814263D83868B4
:102200008007F5D50DE0FFF709FC064606E0FFF76D
:1022100005FC811B41F28830814254D83868800720
:10222000F5D4B8F1000F05D03F483C30016821F0EB
:1022300080510160A069B8B33B49091D0968C1F329
:102240008101022946D00228584606D0C9F860000C
:10225000FFF7E4FB044639E035E04F46C9F860007B
:10226000FFF7DCFB064604E0FFF7D8FB801B0228E3
:1022700029D828688001F7D4D4E907010843A16A66
:102280002D4A490802EB0141626A41EA8211084382
:1022900094F82C1040EA0161CAF800100120386659
:1022A000FFF7BCFB044605E03CE0FFF7B7FB001B73
:1022B000022808D828688001F7D533E0FFF7AEFB85
:1022C000001B022802D90320BDE8F88F286880018E
:1022D000F4D427E00128F7D0DAF80000E26900F42E
:1022E000800191421CD1226A00F03F01914217D136
:1022F00047F6C071626A0140B1EB821F10D1A26A39
:102300004FF0FF3300F4403103EB5202B1EB024FC8
:1023100006D194F82C1000F07060B0EB016F01D082
:102320000120D1E70020CFE70438024000004742F7
:10233000800E4742007000400000FFFF704770476A
:1023400070B590F83C20012A32D0012580F83C502D
:10235000022280F83D2002685368946823F07006DA
:102360000B6833435360134B02689A4214D0B2F1A6
:10237000804F11D0104B9A420ED0104B9A420BD086
:102380000F4B9A4208D00F4B9A4205D00E4B9A42FF
:1023900002D00E4B9A4204D1496824F080031943BD
:1023A000916080F83D50002180F83C10084670BDD7
:1023B000022070BD00000140000400400008004001
:1023C000000C0040000401400040014000180040A3
:1023D00010B5040003D094F83D0010B107E00120CF
:1023E00010BD002084F83C00204600F01FF80220B9
:1023F00084F83D00211D206801F08AFC012084F84A
:10240000460084F83E0084F83F0084F8400084F8D9
:10241000410084F8420084F8430084F8440084F8C2
:10242000450084F83D00002010BD000008B500689C
:102430002149B0F1804F0BD0204B0A1D984219D191
:10244000106840F480301060106800F480301BE0A9
:10245000086840F0010008600868002200F00100F0
:10246000009005211C20FFF781FCBDE808401C20DE
:10247000FFF76FBC124B984208D1106840F400304F
:102480001060106800F40030009008BD0D4A9042C2
:1024900007D1086840F080000860086800F08000FC
:1024A000F2E7094A9042F0D1086840F48070086071
:1024B000086800F48070E7E74038024000400140BF
:1024C00000440140001C00400020004090F83D10F6
:1024D000012901D001207047022180F83D100168D8
:1024E000CA6842F00102CA6000681149884214D0EB
:1024F000B0F1804F11D00F4988420ED00E4988426A
:102500000BD00E49884208D00D49884205D00D49AC
:10251000884202D00C49884204D1816801F0070149
:10252000062903D0016841F00101016000207047D5
:10253000000001400004004000080040000C004082
:1025400000040140004001400018004070B50446FE
:1025500090F83C000025012817D0012684F83C6043
:10256000022084F83D002068826822F0770222F47D
:102570007F4282600868502838D00DDC20284FD078
:1025800005DC90B3102811D14AE0022070BD30283C
:1025900046D040280AD13BE060282FD070280DD0CB
:1025A000B0F5805F03D0B0F5005F12D0012584F84C
:1025B0003D60002084F83C00284670BDCB68D1E91E
:1025C0000121206801F015FC2068816841F0770145
:1025D00009E0CB68D1E90121206801F00AFC2068FC
:1025E000816841F480418160E1E719E0CA68496887
:1025F000206801F0D3FC5021206806E0CA684968D1
:10260000206801F0DCFC6021206801F0FCFBCEE7D3
:10261000CA684968206801F0C1FC40212068F4E7DD
:10262000226801461046F0E7704770B5044600681E
:1026300001694FF00005C943890715D4C168C94332
:10264000890711D4E91E0161012020772068806983
:102650008007204602D0FFF7E7FF04E000F0F6F81D
:10266000204600F088F9257720680169C9434907A9
:1026700017D4C168C943490713D46FF0040101613D
:10268000022020772068806910F4407F204602D025
:10269000FFF7CAFF04E000F0D9F8204600F06BF91C
:1026A000257720680169C943090716D4C168C94361
:1026B000090712D46FF00801016104202077206817
:1026C000C0698007204602D0FFF7AEFF04E000F0AB
:1026D000BDF8204600F04FF9257720680169C9430D
:1026E000C90617D4C168C943C90613D46FF01001D5
:1026F0000161082020772068C06910F4407F2046DF
:1027000002D0FFF791FF04E000F0A0F8204600F0AF
:1027100032F9257720680169C943C90708D1C16822
:10272000C943C90704D1891E0161204600F08CF914
:1027300020680169C943090609D4C168C94309066B
:1027400005D46FF0800101612046FFF7F7FD206896
:102750000169C943490609D4C168C943490605D47A
:102760006FF040010161204600F0AAF9206801697C
:10277000C94389060BD4C168C943890607D46FF0E1
:10278000200101612046BDE87040FFF7D8BD70BD53
:1027900070B586B0044614216846FDF7BBFD244899
:1027A0002168244A02230124032581420DD11068A7
:1027B00040F0010010601068694600F001000590CB
:1027C00004208DE819001C480DE01C4E1C48B14245
:1027D0000FD1116841F020011160116801F0200152
:1027E000059140211FE0CDE90335FFF729F806B038
:1027F00070BD144E0925B14209D1116841F0200184
:102800001160116801F020010591B1150BE00E4E29
:10281000B142ECD1116841F020011160116801F062
:102820002001059171158DE81A006946DBE700006B
:1028300000400140303802400000024000440140A6
:1028400000140240001C004000200040704770B59A
:10285000044690F83C0000260D4601280FD00120C8
:1028600084F83C006AB1042A1DD0082A2FD00C2A13
:102870003FD00126002084F83C00304670BD022085
:1028800070BD206801F0C8FA2068816941F0080134
:1028900081612068816921F004018161206881697A
:1028A0002A69114311E0206801F0E6FA2068816985
:1028B00041F4006181612068816921F48061816156
:1028C000206881692A6941EA02218161D2E7206892
:1028D00001F008FB2068C16941F00801C16120686E
:1028E000C16921F00401C1612068C1692A691143ED
:1028F00011E0206801F02AFB2068C16941F4006101
:10290000C1612068C16921F48061C1612068C16929
:102910002A6941EA0221C161ACE710B5040003D085
:1029200094F83D0010B107E0012010BD002084F8AC
:102930003C00204600F01EF8022084F83D00211DD6
:10294000206801F0E5F9012084F8460084F83E0093
:1029500084F83F0084F8400084F8410084F8420085
:1029600084F8430084F8440084F8450084F83D006E
:10297000002010BD7047704710B5044649B10429C6
:102980000AD008290BD094F8410001280AD0012070
:1029900010BD94F83E00F8E794F83F00F5E794F88E
:1029A0004000F2E70220B1B3042938D0082939D019
:1029B00084F841000122206801F00EFA1B492068CA
:1029C0001B4A884201D0904203D1436C43F4004338
:1029D00043642068884213D0B0F1804F10D015496D
:1029E00088420DD0144988420AD01449884207D041
:1029F000904205D01249884202D01249884204D13F
:102A0000816801F00701062903D0016841F0010146
:102A10000160002010BDFFE784F83E00CAE784F89B
:102A20003F00C7E784F84000C4E700000000014011
:102A3000000401400004004000080040000C004079
:102A4000004001400018004010B5044600681749D6
:102A5000884201D1FFF7E2F82068B0F1804F23D11E
:102A60001349144A08681060134A401C0860108813
:102A70001249401C80B21080B0F57A7F12D3002337
:102A800013804888401C80B248803C280AD34B8081
:102A90008888401C80B288803C2803D38B80C888FB
:102AA000401CC8801088088010BD00000004004051
:102AB0000401002010010020F4000020EC000020A0
:102AC0007047704770B5044620680C3050E8001F0E
:102AD00021F4907140E80012002AF5D120681430EA
:102AE00050E8001F21F0010140E80012002AF5D152
:102AF000206B012809D120680C3050E8001F21F01C
:102B0000100140E80012002AF5D1206840694FF01A
:102B10000005400615D52068143050E8001F21F04C
:102B2000400140E80012002AF5D1A06B48B10565CC
:102B3000A06BFEF738FD20B1A06BFEF78FFD2028BB
:102B400006D0E585202084F83E002563002070BD76
:102B500010202064032070BD70470000F8B50168A4
:102B600004460868CA684B6910F00F0F4FF0000563
:102B700059D003F0010602F49077374365D0C107BE
:102B800005D0D10503D5216C41F001012164410735
:102B900005D5D90703D0216C41F0020121648107DA
:102BA00005D5D90703D0216C41F004012164010748
:102BB00007D502F02001314303D0216C41F0080118
:102BC0002164216C00293AD0800604D5900602D5F4
:102BD000204601F048FA20684069216CC0F380105B
:102BE000090700D460B3204601F016FA2068406956
:102BF000400621D52068143050E8001F21F0400124
:102C000040E80012002AF5D1A06BA8B16C4901651B
:102C1000A06BFEF711FD002811D0A06B016D01B073
:102C2000BDE8F040084783060FD593060DD5204632
:102C3000BDE8F84001F017BA2046FFF78DFFF8BD58
:102C40002046FFF789FF2564F8BD266B2023012E5F
:102C500079D1C60677D5D60675D50868486800903C
:102C60004869400640D5A16B086840680004000C24
:102C7000EAD0A28D8242E7D9E085C869B0F5807FAD
:102C80002DD020680C3050E8001F21F4807140E8FE
:102C90000012002AF5D12068143050E8001F21F0FE
:102CA000010140E80012002AF5D12068143050E8F4
:102CB000001F21F0400140E80012002AF5D184F8FD
:102CC0003E30256320680C3050E8001F21F01001D1
:102CD00040E80012002AF5D1A06BFEF764FCA08D3D
:102CE000E18D401A81B229E0A08DE18D401A81B2B8
:102CF000E08D0028A8D00029A6D020680C3050E82C
:102D0000002F22F4907240E80026002EF5D12068B2
:102D1000143050E8002F22F0010240E80026002E77
:102D2000F5D184F83E30256320680C3050E8002F40
:102D300022F0100240E80023002BF5D12046FFF7D7
:102D4000C0FEF8BDFFE705062BD5150629D594F87A
:102D50003D002128F5D1A068B0F5805F01D1206940
:102D6000B0B1206A411C2162216800784860E08C83
:102D7000401E0004000CE084E3D12068C16821F00B
:102D80008001C1602068C16841F04001C160D8E79E
:102D9000206A0088C0F308004860206A801C206216
:102DA000E5E74006CDD55006CBD5CA68204622F0CF
:102DB0004002CA6084F83D3000F062F9C1E70000CB
:102DC0000940000870B5040004D094F83D000025C7
:102DD00010B106E0012070BD84F83C50204600F0A0
:102DE00067F8242084F83D002068C16821F4005170
:102DF000C160204601F098F92068016921F49041F2
:102E000001612068416921F02A0141612068C1689F
:102E100041F40051C1602564202084F83D0084F80D
:102E20003E00002070BD000010B51A4B01681A4A20
:102E30001A48994209D1116821F4002111604FF418
:102E40004061FEF71FFC34201EE0154B99420CD167
:102E5000116821F4801111609914FEF713FC04210C
:102E60001048FEF70FFC35200EE00F4881420FD1CD
:102E70000948001D016821F0100101604FF4C06194
:102E80000A48FEF7FFFB2520BDE81040FEF750BFC3
:102E900010BD0000004C00404038024000080240D5
:102EA00000500040000C02400010014000000240B1
:102EB000F0B587B0044614216846FDF72BFA49495E
:102EC000474B2268DFF81CC1103902250126032474
:102ED000082745484FF0000E9A4221D1DCF8002027
:102EE00042F40022CCF80020DCF8002002F400229A
:102EF00005920A6842F004020A60096801F00401C0
:102F00000591A1028DE86200CDE903476946FEF70D
:102F100097FC002205213420FEF728FF342034E0FE
:102F2000324B9A4235D1DCF8002042F48012CCF8C2
:102F30000020DCF8002002F4801205920A6842F0BA
:102F400004020A600A6802F0040205920A6842F06C
:102F500008020A60096801F00801059199148DE8DA
:102F60006200CDE903476946FEF76AFC04208DE85C
:102F70006100CDE9034769461D48FEF761FC002268
:102F800005213520FEF7F2FE3520FEF7E2FE07B000
:102F9000F0BD18488242FAD11248001D026842F082
:102FA00010020260006800F010000590086840F010
:102FB000010008600868694600F0010005904FF4C0
:102FC000C0608DE821400720CDE903400A48FEF7A4
:102FD00037FC002205212520FEF7C8FE2520D4E776
:102FE000004C0040403802400008024000500040C1
:102FF000000C0240001001400000024090F83E30FA
:10300000202B0ED159B152B190F83C30012B08D091
:10301000012380F83C300023036301F00BB9012049
:10302000704702207047000070B5044600680F49E1
:103030000F4D884205F1080605D10E4B2A46314650
:10304000281D00F029FD0C492068884205D1094B54
:10305000074A3146281D00F01FFD084920688842B4
:1030600003D1BDE8704001F0C5BE70BD0010014045
:10307000284D0020AC00002000500040004C0040D3
:103080007047000010B500210D48FFF775FC0021C6
:103090000C48FFF771FC00210B48FFF76DFC06217F
:1030A000002002F0E5FE0821002002F0E1FE0921E7
:1030B000002002F0DDFEBDE810406420FEF7D0BA2B
:1030C000B002002068020020F8020020FEE70000A5
:1030D000104810B50E4901600321416000214FF4F2
:1030E00000228160C0E903124FF440124261017670
:1030F000012242768176C17601774177FEF7C5F8E5
:10310000002803D0BDE81040FDF7A4BD10BD0000AD
:103110000064004034010020104810B50E490160E1
:103120000321416000214FF400228160C0E90312B5
:103130004FF4401242610176012242768176C176D7
:1031400001774177FEF7A1F8002803D0BDE81040D1
:10315000FDF780BD10BD0000006800405C0100204C
:1031600010B5114802F046F9104C0F4A0021606179
:10317000903A0F4802F072F90B4A60606C3A0021F5
:103180000C4802F06BF9084AA060483A00210A484E
:1031900002F064F9044AE060243A0021074802F092
:1031A0005DF9206110BD0000DC6D0008000000200A
:1031B0000D3C00084937000885350008E33F00084A
:1031C00030B587B014216846FDF7A4F827480024DD
:1031D000016841F004010160016801F004010591FA
:1031E000016841F020010160016801F020010591B2
:1031F000016841F080010160016801F080010591E2
:10320000016841F001010160016801F001010591CF
:10321000016841F002010160016801F002010591BD
:10322000016841F0080101600068114D00F00800DC
:1032300005900720CDE90004012002906946284648
:10324000FEF7FEFA80214FF48810CDE900100294B9
:1032500069462846FEF7F4FA002205211720FEF7FA
:1032600085FD1720FEF775FD07B030BD30380240F0
:10327000001402400D4810B50B4901600C49416033
:1032800000214FF480428160C0E9031241618161F5
:10329000C1610162FEF7C8FB002803D0BDE8104001
:1032A000FDF7D8BC10BD000000580040840100208C
:1032B000A086010010B588B01C216846FDF72AF8E9
:1032C00015481449002401605321C0E9011444F653
:1032D0001F61C0E9031480218161FFF779F808B10B
:1032E000FDF7B8FC0C48FFF718FB08B1FDF7B2FC7E
:1032F0006020CDE900040294002269460648049447
:10330000FFF7A5FA08B1FDF7A5FC0348FFF740FA5F
:1033100008B010BD004401406802002010B588B01C
:103320001C216846FCF7F6FF15481449002401608B
:103330005321C0E9011444F61F61C0E90314802140
:103340008161FFF745F808B1FDF784FC0C48FFF7F1
:10335000E4FA08B1FDF77EFC6020CDE90004029498
:103360000022694606480494FFF771FA08B1FDF798
:1033700071FC0348FFF70CFA08B010BD001C0040B8
:10338000B002002010B588B01C216846FCF7C2FFCF
:1033900015481449002401605321C0E9011444F682
:1033A0001F61C0E9031480218161FFF711F808B1A2
:1033B000FDF750FC0C48FFF7B0FA08B1FDF74AFCE6
:1033C0006020CDE900040294002269460648049476
:1033D000FFF73DFA08B1FDF73DFC0348FFF7D8F9C8
:1033E00008B010BD00200040F802002010B586B0E3
:1033F00000241748009401940294039404944FF01D
:103400008041059401605321C0E9011442F210711A
:10341000C0E9031480218161FEF7DAFF08B1FDF7EE
:1034200019FC4FF48050009069460948FFF78EF868
:1034300008B1FDF70FFC049404A905480594FEF7B4
:103440007FFF002801D0FDF705FC06B010BD00008D
:10345000D801002010B58CB000240794089409947A
:103460001C2168460A94FCF755FF1A481849016068
:103470005321C0E9011444F61F61C0E903148021FF
:103480008161FEF7A5FF08B1FDF7E4FB4FF4805022
:10349000079007A90F48FFF759F808B1FDF7DAFBC5
:1034A0000C48FFF73AFA08B1FDF7D4FB6020CDE9EC
:1034B000000402940022694606480494FFF7C7F905
:1034C00008B1FDF7C7FB0348FFF762F90CB010BD68
:1034D00000400140200200200C4810B50A4901605C
:1034E0004FF4E1314160002181600C22C160C0E9EC
:1034F00004128161C161FFF765FC002803D0BDE8BB
:103500001040FDF7A7BB10BD004C00404003002059
:103510000C4810B50A4901604FF4E13141600021C7
:1035200081600C22C160C0E904128161C161FFF7B2
:1035300049FC002803D0BDE81040FDF78BBB10BD4F
:1035400000500040840300200C4810B50A49016077
:103550004FF4E1314160002181600C22C160C0E97B
:1035600004128161C161FFF72DFC002803D0BDE882
:103570001040FDF76FBB10BD00100140C8030020D4
:10358000FEE700000A4C20680A2809D2042802D26B
:1035900000F082F801E000F00FF82068401C206085
:1035A00000F0AEF900F0B0F8012001F0E7FEEAE724
:1035B00000000020FEE7000070B5354D42F21074A7
:1035C0002DED028B9FED338A286898B901210523E0
:1035D0002246F0EE480AB2EE080A0846FDF734FA31
:1035E00005232246F0EE480AB2EE080A0221012025
:1035F000FDF72AFA2868012812D105232246F0EEA9
:10360000480AB2EE080A0321FDF71EFA05232246F6
:10361000F0EE480AB2EE080A04210120FDF714FA80
:103620002868022813D105232246F0EE480AB2EE9C
:10363000080A19460120FDF707FA05232246F0EE95
:10364000480AB2EE080A06210120FDF7FDF92868B4
:10365000032813D105232246F0EE480AB2EE080AE9
:1036600007210120FDF7F0F905232246F0EE480A74
:10367000B2EE080A08210120FDF7E6F92868401C8F
:103680002860032801DD00202860BDEC028B70BD9E
:103690002C010020CDCCCC3E00B51A4885B00121CC
:1036A0004180022141860321A0F862100421A0F884
:1036B00092100521A0F8C2100621A0F8F2100721EF
:1036C000A0F822110821A0F852111121017080F8F0
:1036D000301080F8601080F89010122280F8C0201E
:1036E00080F8F01080F8201180F85011CDE9012108
:1036F000039104910B460A4601200091FDF720F941
:1037000005B000BDF44D002070B50D4E0D4D0024E8
:103710000121B5F90200204400EB400006EB001047
:1037200002F034FB641C24B2022CF1DB6888801C9C
:1037300000B26880042801DB0020688070BD0000B2
:10374000F44D002024010020012001F017FEFBE7CA
:103750002DE9F0414F4E2DED028B3089A0F56170BF
:10376000C82803D800F084F94BA04FE04EA001F028
:1037700017FD70890027A0F5AF6101244E4DC829BF
:1037800068D821466C704D4CB0EE088A4CA084ED90
:10379000118A84ED108A84ED0F8A84F8301001F0CC
:1037A000FFFC2878012802D14748FFF78BF92F70DA
:1037B000F089A0F26C70C8282ED8B7EE000A84ED0C
:1037C000110AB6EE000A84ED100A84ED0F0AB089E2
:1037D000A0F2B631642904D8142001F089FB3BA083
:1037E00014E0A0F2AA5064280CD8182001F080FB45
:1037F0000621002002F03CFB0821002002F038FBEB
:1038000035A003E0152001F073FB37A0BDEC028B5F
:10381000BDE8F04101F0C4BCB1EE000A84ED110A2C
:1038200084ED100A84ED0F8AB089A0F29E714B29B5
:1038300001D9A0F2B630182001F05AFB0621002071
:1038400002F016FBBDEC028B0821BDE8F041002020
:1038500002F00EBBA0F26C70C82814D8687801285A
:1038600002D100F005F96F70287820B901222149B2
:103870001548FFF7C3FB20A001F092FC2C70BDECB3
:10388000028BBDE8F081BDEC028BBDE8F04100F099
:10389000EFB80000984D0020726F626F742073744F
:1038A0006F700D0A00000000726F626F74207374F5
:1038B0006172740D0A000000EA000020284D00200B
:1038C00068616E640D0A0000C803002054414B4536
:1038D0005F42414C4C0D0A005448524F575F4241E1
:1038E0004C4C0D0A00000000534156455F42414CCC
:1038F0004C0D0A00AD0000206174756F0D0A0000C8
:1039000010B5FDF7A9F9BDE8104000F001B80000BE
:1039100070B54E4C2DED048B94ED0E0A9FED4C9A34
:1039200060EE090ADFED4B8A80EEA80A10EE100A5D
:10393000FCF7FBFC41EC100B00F06AFD51EC100BA6
:10394000FCF706FD94ED0E0A08EE100A60EE090A77
:1039500080EEA80A10EE100AFCF7E7FC41EC100B11
:1039600000F0BAFD51EC100BFCF7F2FC00EE100A6F
:1039700094F8310001280FD1D4ED030A94ED041A14
:1039800060EE881A41EE401A20EE800A01EE080A25
:10399000C4ED011A84ED020AD4ED010A9FED2E1A3E
:1039A000D4ED021A94ED050A20EE813A9FED2B2A00
:1039B000DFED2B2A002001EEC13A2C4A042500EE4F
:1039C000023A63EE223A9FED273A83EE834ADFED17
:1039D000263A61EEA33A61EE811A40EEC13A40EE1A
:1039E000023A84ED084A63EEA23A83EE834AF0EE8F
:1039F000613A40EE811A40EEC13A40EE021A40EEC2
:103A0000023A21EEA20A63EEA23A84ED094AC0EE20
:103A1000030A83EE834A84ED0A4AC4ED0B0A00EBE5
:103A2000400102EB0111431C4B8004EB80030D713C
:103A300093ED080A401C0428BDEEC00A10EE103AAF
:103A4000CB80ECDBBDEC048B70BD0000284D00206A
:103A5000DA0F494000003443E604353FEE7CBF3EB8
:103A600000800E44C57D743EE60435BFF44D002051
:103A7000084910B5002081F83000182001F038FA0C
:103A80000621002002F0F4F90821BDE810400020D2
:103A900002F0EEB9284D00202DE9F05F90468A46ED
:103AA00081469B4601224B494B48FFF7A7FA01226A
:103AB00048494A48FFF7A2FA464C494D641E4FF068
:103AC000000C6079112809D0E0780121C0B10128EB
:103AD0001BD0022829D0032879D13FE06078AA289A
:103AE00001D0207173E02079552870D184F805C089
:103AF0002870AA20687084F803C084F802C066E0C9
:103B00006078A8706081E17061E0B4F906006178C6
:103B10002A18401CD17000B2E080B4F90A10884223
:103B200055DBA4F806C0022016E0B4F90A0061785B
:103B30002A18C01CD170C1B2294802F081F9A070C6
:103B4000B4F90A102944C978814203D025A001F0B4
:103B500027FB3CE0E078401CE07038E0B4F9080056
:103B600010B1012802D032E0218130E0194BA4F8D5
:103B700008C017331E1D371DB4F908002918CA786C
:103B80001A54CA793254C97A3954401C00B220817F
:103B90000428F1DB93ED000A112089ED000A96ED6F
:103BA000000A8AED000A97ED000A88ED000AE97B19
:103BB0008BF8001084F803C084F804C0607184F8A6
:103BC00002C0A4F80AC0A4F806C0A4F808C00020E7
:103BD000BDE8F09FAD000020C80300208403002052
:103BE000704D002052656365697665642074656D6B
:103BF0005F617272617920636865636B2073756DB4
:103C0000206572726F72210D0A000000094D0024B8
:103C100004EBC40005EB80004268601C81B2032005
:103C2000FCF7C2FF641C022CF2DB012001F0A6FBB2
:103C3000EDE70000F450002010B54FF0E0200069DF
:103C400002F0D4FE012803D0BDE8104002F0C6BB4C
:103C500010BD000030B593B030216846FCF75AFB28
:103C600014210CA8FCF756FB1D480025016841F003
:103C700080510160006800F080501190194801687F
:103C800041F4804101600068022400F480401190FA
:103C900001200090000401908001CDE9064008AAAF
:103CA0000420A82182E813000B906846FEF79AF9D9
:103CB00008B172B6FEE70CA90F2081E831004FF47D
:103CC000A0500F904FF48050109005210CA8FEF7E3
:103CD0007FF8002801D072B6FEE713B030BD0000B7
:103CE00040380240007000400248016841F4700111
:103CF0000160704788ED00E00148FEF796BC0000C7
:103D0000D80100200148FEF790BC00000C04002000
:103D1000F0B50268254D264E264FDFF89CC0274B94
:103D20004FF0804EA84209D0704507D0B04205D070
:103D3000B84203D0604501D0984203D122F070040C
:103D40004A682243A8421BD0704519D0B04217D010
:103D5000B84215D0604513D0984211D0184CA042FB
:103D60000ED0184CA0420BD0174CA04208D0174CD4
:103D7000A04205D0164CA04202D0164CA04203D15E
:103D800022F44074CA6822434C6922F08002224324
:103D900002608A68C2620A688262A84201D09842C0
:103DA00001D10969016301214161F0BD00000140B9
:103DB0000004004000080040000C004000040140E6
:103DC000004001400044014000480140001800400C
:103DD000001C00400020004010B501F01F0101232D
:103DE000046A8B409C430462036A8A401343036263
:103DF00010BD10B5846842EA032224F47F440A43CC
:103E00002243826010BD826822F070020A4342F0B1
:103E10000701816070470000F0B5026A22F00102DC
:103E20000262026A43688469114E24F073050C68CB
:103E3000104F2C4322F002058A682A43B04201D079
:103E4000B84205D122F00805CA682A4322F00402CC
:103E5000B04201D0B84205D14D6923F440731D43EF
:103E60008B692B4343608461496841630262F0BD02
:103E70000000014000040140F0B5026A22F0100287
:103E80000262026A436884690D6824F4E64444EAE5
:103E900005248D6822F0200242EA05120F4D104ED3
:103EA000A84201D0B04206D1CF6822F0800242EA97
:103EB000071222F04002A84201D0B04207D14D695A
:103EC00023F4406343EA85038D6943EA8503436035
:103ED0008461496881630262F0BD00000000014016
:103EE00000040140F0B5026A22F480720262026AA4
:103EF0004368C46922F4007224F073050C68124E02
:103F00002C438D6842EA05220E4DA84201D0B042F2
:103F100006D1CF6822F4006242EA072222F48062CE
:103F2000A84201D0B04207D14D6923F4405343EA7F
:103F300005138D6943EA05134360C4614968C16391
:103F40000262F0BD000001400004014030B5026A89
:103F500022F480520262036A4268C4690D6824F444
:103F6000E64444EA05248D6823F4005343EA05330C
:103F7000084DA84202D0084DA84204D14D6922F450
:103F8000804242EA85124260C4614968016403626A
:103F900030BD0000000001400004014010B5046A7B
:103FA000036A23F001030362836923F0F00343EA09
:103FB000021324F00A020A438361026210BD10B5A5
:103FC000036A23F0100303628469036A24F47044D3
:103FD00044EA023223F0A00343EA01118261016244
:103FE00010BDFFF7B5FB012001F0C8F9F9E70000AB
:103FF0000148FEF7B3BD0000400300200148FEF772
:10400000ADBD00008403002010B5806B0021C18588
:10401000C184FEF7A1FD10BD01680C3151E8002FED
:1040200022F4907241E80023002BF5D1016814318D
:1040300051E8002F22F0010241E80023002BF5D1C6
:10404000016B012909D101680C3151E8002F22F0E0
:10405000100241E80023002BF5D1202180F83E100A
:1040600000210163704708B590F83E10222901D065
:10407000022008BD81684FF48053994201D1026942
:1040800022B1826A99421BD049B10AE00268816A72
:104090005268C2F308020A80816A891C08E001693B
:1040A00071B10168496801F07F011170816A491C92
:1040B0008162C18D491E0904090CC18503D019E034
:1040C00001684968F1E70168CA6822F02002CA6005
:1040D0000168CA6822F48072CA6001684A6922F0E5
:1040E00001024A61202180F83E10016B012903D0B2
:1040F000FEF79AFF002008BD0021016301680C3122
:1041000051E8002F22F0100241E80023002BF5D1E6
:1041100001680A68D20602D50A6849680091818D53
:10412000FEF7CFFCE6E7000070B5044600680169C1
:10413000E26821F4405111430161A1682069E269FC
:1041400001436069104301432068C26849F20C636F
:104150009A430A43C26020684169A26921F4407110
:104160001143416131492068884202D03049884278
:1041700002D1FDF7F7FE01E0FDF7E4FEE26900235E
:10418000192164253226B2F5004F626828D0A0FBC1
:104190000101930F9200FCF773F80146B0FBF5F0B4
:1041A0006FF01802504301EB800006EB0010B0FBEB
:1041B000F5F000F0F002B1FBF5F002EB0012B1FBFC
:1041C000F5F06FF01803584301EB800006EB001088
:1041D000B0FBF5F000F00F0021681044886070BD5E
:1041E000A0FB010192185B41FCF74AF80146B0FBC5
:1041F000F5F00201B1FBF5F06FF01803584301EB45
:10420000800006EBC000B0FBF5F000F0F80002EB18
:104210004002B1FBF5F0584301EB800006EBC00013
:10422000B0FBF5F000F00700D6E7000000100140F9
:104230000014014081628285C2850021016422222E
:1042400080F83E2080F83C10016921B10168CA68FD
:1042500042F48072CA6001684A6942F001024A6110
:104260000068C16841F02001C16000207047000073
:104270000148FEF773BC0000C80300201C4991ED03
:10428000031A81ED061A91ED040A81ED070AD0EDBB
:10429000000AC1ED000AD0ED011AC1ED011AD0EDFE
:1042A000021AC1ED021A90ED032A81ED032AD0ED26
:1042B000041A32EE411AC1ED041AD0ED052A31EE8E
:1042C000C00AC1ED052A0B4881ED081A81ED090AE3
:1042D000C0ED0E0AD1ED0A0A70EE810AC1ED0A0A9C
:1042E000D1ED0B0A30EE800A81ED0B0A7047000019
:1042F000AC4D0020284D0020FEE7000000B58BB03B
:1043000000200121CDE90601059000900190029066
:10431000039004900E20CDE9081069460E48FCF782
:10432000A5FD08B1FCF796FC0B48FDF70AF908B1AA
:10433000FCF790FC01210848FCF722FD08B1FCF7CE
:1043400089FC02210448FCF71BFD002801D0FCF782
:1043500081FC0BB000BD00003401002000B58BB023
:104360000F20059000200121CDE906010090019069
:104370000290039004900E20CDE9081069460E4883
:10438000FCF774FD08B1FCF765FC0B48FDF7D9F8A4
:1043900008B1FCF75FFC02210748FCF7F1FC08B10B
:1043A000FCF758FC01210448FCF7EAFC002801D086
:1043B000FCF750FC0BB000BD5C01002003B4019879
:1043C0004100009850EAC12018BF04204A0D18BFD0
:1043D00040F0010040F2FF72B2EB515F08BF40F0C5
:1043E0000200012808BF052002B070470907090E26
:1043F000002804DB00F1E02080F80014704700F092
:104400000F0000F1E02080F8141D7047000000004C
:1044100010B52F499FED2C1B2DED020B84B0059894
:1044200020F000408842D8BF9DED040B2DDD2949C6
:10443000884209D1049840B94FF0010000F0D4FC43
:1044400000F0A2FC06B010BD05DB9DED040B00F0F2
:104450008FFC06B010BD68469DED040B00F0A0F87F
:1044600010F0030004BF9DED021B9DED000B0CD06E
:1044700001280ED09DED021B9DED000B022817D0E8
:10448000012000F0DDFB06B010BD00F0A5FA06B07B
:1044900010BD9DED021B9DED000B012000F0D0FB37
:1044A00051EC100B81F0004106B041EC100B10BD37
:1044B00000F092FA51EC100B81F0004106B041EC93
:1044C000100B10BD00000000000000000000000004
:1044D000FB21E93F0000F07F10B52F499FED2C1B19
:1044E0002DED020B84B0059820F000408842DCBF1F
:1044F00000209DED040B32DD2849884209D1049843
:1045000040B94FF0010000F06FFC00F03DFC06B038
:1045100010BD05DB9DED040B00F02AFC06B010BDBC
:1045200068469DED040B00F03BF810F0030011D03D
:10453000012818D09DED021B9DED000B02281AD01A
:1045400000F04AFA51EC100B81F0004106B041EC4A
:10455000100B10BD9DED021B9DED000B012000F026
:104560006FFB06B010BD9DED021B9DED000B00F032
:1045700033FA06B010BD012000F062FB51EC100BC5
:1045800081F0004106B041EC100B10BD00000000AE
:104590000000000000000000FB21E93F0000F07F68
:1045A0002DE9F14F04462DED020B2DED088B8AB05D
:1045B0009FEDE70B80ED020B139EE74826F00045C8
:1045C00085420ADC9DED120B002084ED000B0AB041
:1045D000BDEC088B03B0BDE8F08FE0489FEDE0AB89
:1045E0009FEDE1BBA84247DDE14F9FEDE39B9FEDCF
:1045F000E48B9DED120B53EC1A2B51EC100B002E9B
:104600001CDDFBF7CAFF41EC100BBD4208D053EC98
:104610001B2B51EC100BFBF7C0FFC4E900010BE0B2
:1046200053EC192B51EC100BFBF7B7FF53EC182B85
:10463000FBF7B3FFC4E900010120C8E7FBF70CFF5B
:1046400041EC100BBD4208D053EC1B2B51EC100B6E
:10465000FBF702FFC4E900010BE053EC192B51EC0E
:10466000100BFBF7F9FE53EC182BFBF7F5FEC4E932
:1046700000014FF0FF30AAE7C348A84279DB9DED67
:10468000120B51EC100B00F091FD41EC180B9FED5B
:10469000C00B53EC102BFBF786FF9FEDBF1B53ECB9
:1046A000112BFBF7D9FEFCF77DF80746FCF75CF809
:1046B00041EC190B53EC1A2BFBF775FF53EC182B3D
:1046C000FBF76EFF41EC180B53EC1B2B51EC190B55
:1046D000FBF769FFDFF8C8A241EC100B4FEA155851
:1046E0000125FA4453EC102B51EC180BFBF755FF46
:1046F000032DC4E900013DD0C1F30A5005EB45117B
:10470000A8EB00001139814234DA0AEB051BB0EE48
:1047100048AA9BED000BF0EE68AA53EC102B51EC6D
:10472000190BFBF740FF41EC1B0B51EC1A0B53EC40
:104730001B2BFBF732FF41EC180B51EC1A0B53EC1F
:10474000182BFBF72AFF53EC1B2BFBF726FF9BEDE7
:10475000020B41EC1A0B53EC102B51EC190BFBF72D
:1047600022FF53EC1A2BFBF718FF41EC100B6D1CCA
:10477000B8E70EE0002EA8BF3846BFF628AF94ED8C
:10478000000B51EC100B81F00041C4E900017842AC
:104790001DE7C6F3130040F4801EC6F30A50A0F2D2
:1047A000F530471100F01F05C5F12000DDF848B0D5
:1047B00008900020069007900520EC467949002DCE
:1047C00007EB0002794408BF51F8221009D051F8D4
:1047D000223001EB8201AB404A68089922FA01F1CC
:1047E0001943A1FB0E26A1FB0B131A449A4234BFB6
:1047F0000123002303EB06080CEB8003D3E901A699
:104800000E448E4234BF0121002192448A4411B1EA
:10481000924502D903E0924501D2012100E0002136
:10482000C3E901A641444CF82010011EA0F101008B
:10483000C4DC029800F10050850F0298DDE903679F
:104840008000DDF81480FBF78FFF41EC1A0B304637
:10485000FBF79BFF9FED541B53EC112BFBF7A3FEC3
:1048600041EC1B0B3846FBF790FF9FED511B53ECBF
:10487000112BFBF798FE41EC180B4046FBF785FF28
:104880009FED4D1B53EC112BFBF78DFE41EC190BEB
:1048900051EC180B53EC192BFBF7DEFD53EC1B2BE3
:1048A000FBF7DAFD53EC1A2BFBF7D6FDCDE9080137
:1048B000002008909DED080B53EC1A2B51EC100BC7
:1048C000FBF76BFE53EC1B2BFBF767FE53EC182B2F
:1048D000FBF763FE53EC192BFBF762FE9FED381BD1
:1048E00053EC112BFBF75FFE9FED370B41EC180BE0
:1048F00053EC102B9DED080B51EC100BFBF753FE06
:1049000053EC182BFBF7A8FD9FED310B41EC180B76
:1049100053EC102B9DED080B51EC100BFBF743FEF5
:1049200053EC182BFBF798FD41EC100B139810F08B
:10493000004F06D06D4251EC100B81F0004141EC6C
:10494000100B284684ED000B41E60000000000003B
:104950000000000000000000FB21E93F7CD902407C
:1049600000004054FB21F93F3163621A61B4D03D2D
:10497000FB21F93F000000000000601A61B4D03D47
:104980007370032E8A19A33BFB21394100000000FC
:1049900083C8C96D305FE43F000000000000E03FC5
:1049A00052270000A0260000000000000000103E7A
:1049B000000000000000103C000000000000103A61
:1049C000182D4454FB21F93D3326A611460B113C0A
:1049D00000000054FB21F93D10B52DED040B2DED29
:1049E000088B82B0B0EE419AF0EE619A0B9820F0FD
:1049F00000449FED4BABB4F1795F11DA9DED0A0BEA
:104A000051EC100BFBF7CEFE002801BFB0EE4A0AB6
:104A1000F0EE6A0A02B0BDEC088B04BF04B010BD12
:104A20009DED0A0B53EC102B51EC100BFBF7BBFD6B
:104A300041EC180B3C480621B0EE480AF0EE680A3B
:104A4000784400F081F853EC182B51EC100BFBF775
:104A5000AAFD9DED0A0B41EC1B0B53EC192B51ECFD
:104A6000100BFBF7A0FD41EC190B53EC1B2B51EC89
:104A7000180BFBF798FD53EC192BFBF78EFD9FED00
:104A80002C0B41EC190B53EC102B51EC180BFBF7D2
:104A90008AFD41EC100B2848844210DA53EC192BA4
:104AA00051EC100BFBF779FD53EC1A2BFBF778FD5B
:104AB00041EC100B02B0BDEC088B04B010BD1F48D8
:104AC000A042BCBF9FED1E1B8DED001B06DBA4F5B5
:104AD00000100190002000909DED001B51EC100B88
:104AE00053EC112BFBF759FD9DED000B41EC180B1E
:104AF00053EC102B51EC1A0BFBF74FFD41EC1A0B4A
:104B000053EC192B51EC180BFBF747FD53EC1A2B08
:104B1000FBF746FD41EC100BCCE700000000000065
:104B2000000000000000F03FC4230000000000006F
:104B3000000000000000E03F3333D33F0000E93FB6
:104B4000000000000000D23F70B504462DED028B3E
:104B50004D1E00EBC500B0EE408AF0EE608A90ED8D
:104B6000000B35F0060017D053EC182B51EC100B4E
:104B7000FBF719FD41EC100B6D1E04EBC50090ED29
:104B8000001B51EC100B53EC112BFBF765FC41ECB7
:104B9000100B35F00600E7D1022D36D0042D1CD0C5
:104BA000062D1CBFBDEC028B70BD53EC182B51ECD5
:104BB000100BFBF7F8FC94ED0A1B53EC112BFBF7E1
:104BC0004BFC53EC182BFBF7EEFC94ED081B53EC5D
:104BD000112BFBF741FC41EC100B53EC182B51EC63
:104BE000100BFBF7E0FC94ED061B53EC112BFBF7CD
:104BF00033FC53EC182BFBF7D6FC94ED040B53EC71
:104C0000102BFBF729FC41EC100B53EC182B51EC4B
:104C1000100BFBF7C8FC94ED021B53EC112BFBF7B8
:104C20001BFC53EC182BFBF7BEFC94ED001B53EC64
:104C3000112BFBF711FCBDEC028B41EC100B70BD8E
:104C400031B504462DED040B2DED0A8BB0EE41BAC3
:104C5000F0EE61BA0B989DED0A0B20F00040B0F128
:104C6000795F0DDA51EC100BFFF7A8FB042808BFA1
:104C700000F09AF89DED0A0BBDEC0A8B05B030BD33
:104C800053EC102B51EC100BFBF78DFC41EC180B87
:104C90009DED0A0B53EC182B51EC100BFBF783FC2A
:104CA00041EC190B2C48B0EE480AF0EE680A0521D9
:104CB0007844FFF749FF9FED2ACBB0EE40AAF0EE13
:104CC00060AA9CB353EC1C2B51EC190BFBF76BFC4B
:104CD00041EC1C0B53EC1A2B51EC190BFBF763FC4A
:104CE0009FED210B41EC190B53EC102B51EC1B0BDE
:104CF000FBF759FC53EC192BFBF74FFC53EC182B2B
:104D0000FBF751FC53EC1B2BFBF747FC53EC1C2B24
:104D1000FBF743FC9DED0A1B53EC112BFBF740FC0A
:104D2000BDEC0A8B05B041EC100B30BDFFE753EC36
:104D30001A2B51EC180BFBF736FC53EC1C2BFBF732
:104D40008BFB53EC192BFBF72EFC9DED0A1B53EC50
:104D5000112BFBF781FBE3E74C2200000000000071
:104D6000495555555555C5BF000000000000E03FAE
:104D700010B553EC102B51EC100BFBF76DFB41EC15
:104D8000100B10BD000000009FED050B10B553EC9B
:104D9000102B51EC100BFBF778FC41EC100B10BD05
:104DA00000000000000000009FED050B10B553EC63
:104DB000102B51EC100BFBF7F6FB41EC100B10BD68
:104DC000000000000000001002E008C8121F08C127
:104DD000002AFAD170477047002001E001C1121F7C
:104DE000002AFBD1704700000149086070470000AD
:104DF0003001002010B501221A491B48FEF7FEF8C9
:104E0000184A0023507805282AD2DFE800F003086A
:104E1000121E230010780D280AD1012007E0107817
:104E20000A2802D00D2803D01AE093700220507097
:104E300010BD0E4C907811782154401CC0B2907077
:104E40001828F5D393700320F1E710780A2807D1CA
:104E50000420ECE710780D2802D10448FFF70EFA81
:104E6000537010BD2001002040030020DC4D0020C5
:104E70002DE9F04101261C4F00251C4C17280AD0B3
:104E800018282FD1A570052200210120FBF79CFDD9
:104E9000207898B11AE0A670002201213846FCF76C
:104EA000B7FD94F90100411C61700A281ADB052244
:104EB00096210120FBF788FD257012E04FF4FA627D
:104EC000052351100120FBF719FD267094F901000C
:104ED000411C61700A2805DB012211463846FCF7A7
:104EE00097FD6570BDE8F0810000024014010020CC
:104EF00070B5444E444D002496F90210143805282C
:104F000070D2DFE800F01B032B3F7100012902D1B2
:104F10001820FFF7ADFF0120B060AC7041F64C5097
:104F2000686085F82640A86209210A2000F0A0FFE9
:104F30000621002000F09CFF082160E0012902D139
:104F40001820FFF795FFAC706C6085F826400921AA
:104F50000020AC620DE000F08BFF43E0AC706C60B1
:104F600085F82640AC6211B91720FFF781FF0921AF
:104F7000052000F07DFF06210A2000F079FF0821BE
:104F80000A20E8E7012902D11820FFF771FFB06875
:104F9000012816D1B0880921401CB080AC706C602B
:104FA00085F826400020AC6200F062FFB088B0F5C2
:104FB0007A7F00D3B460AC701448686085F82640EE
:104FC000A862B08840F6C41188420AD3AC7043F698
:104FD0009820686085F82640A86209211E2000F00C
:104FE00047FFB480002070BD012902D11820FFF7CF
:104FF0003FFFAC706C6085F826400921AC62002050
:10500000A9E7000014010020F4500020F0D8FFFFB1
:105010000246012809D0022A09D04B1E032A08D0D3
:10502000042803D1052B01D8163108B27047083186
:10503000FBE7052BFAD81031F7E720EE200A42B142
:10504000BDEEC00A10EE102A13B20A46194600F04F
:1050500009B8BCEEC00A10EE102A93B20A461946EF
:1050600000F020B830B513680D0A5C1C1460C554FC
:1050700013685C1C1460C15430BD30B513680D0E4C
:105080005C1C1460C55413680D0C5C1C1460C55482
:1050900013680D0A5C1C1460C55413685C1C146012
:1050A000C15430BD30B513680D0A5C1C1460C55482
:1050B00013685C1C1460C15430BD00B532B100F0FF
:1050C00038F800EE900AB8EE601A05E000F01DF81E
:1050D00000EE900AB8EEE01AC1EE000AB0EE600AE7
:1050E00000BD00B532B100F02BF800EE900AB8EE2A
:1050F000601A05E000F011F800EE900AB8EEE01A30
:10510000C1EE000AB0EE600A00BD0A681044921CAD
:1051100000880A6040BA00B270470A681318C01CC1
:105120001B68105C1BBA23F0FF031843121D0A60B2
:1051300070470A681044921C00880A6040BA7047A1
:105140000A681318C01C1B68105C1BBA23F0FF030D
:105150001843121D0A60704730B5054687B000201D
:1051600014460690082B18D800910290CDE903034D
:105170008DF8140002E00120FCF772FA2846FBF7D4
:1051800070FF0028F7D006AB224669462846FBF799
:1051900009FE002801D0FBF75DFD07B030BD00001F
:1051A0000148FDF741BE00008403002082B0CDE934
:1051B000000121F0004001909DED000B02B051EC88
:1051C000100B704770B50E462DED028B82B000219A
:1051D00000910068C0F30F22C4B29FED448A012AF7
:1051E00008D0022A11D0DFED428A032A2AD0042AED
:1051F00024D150E000226946B0EE480A3046FFF75D
:1052000070FF04EB44013B4809E000226946B0EE20
:10521000480A3046FFF765FF374804EB440100EBCE
:105220000114694604ED020A3046083CFFF76DFFA1
:10523000A08069463046FFF768FFE08002B0BDEC11
:10524000028B70BD00226946B7EE000A3046FFF7B8
:1052500034FF2A4804EBC40100EB8105002205ED70
:10526000030A6946B0EE480A3046FFF726FF05ED0F
:10527000020A01226946B0EE680A3046FFF71DFFB8
:1052800005ED040A00226946B7EE000A3046FFF732
:1052900014FF05ED010A00226946B7EE000A304608
:1052A000FFF70BFF154804EBC401D83000EB810475
:1052B000002204ED030A6946B0EE480A3046FFF7C3
:1052C000FCFE04ED020A01226946B0EE680A30468F
:1052D000FFF7F3FE04ED040A00226946B7EE000A68
:1052E0003046FFF7EAFE04ED010AA7E700007A4422
:1052F0000000C842F44D0020744F0020F4500020FC
:10530000FCF794FCFEF7A6FCFDF75AFFFDF7E0FE64
:10531000FDF702FFFEF718F9FEF768F8FEF7F8F858
:10532000FDF7C8FFFDF7FAFFFEF794F8FEF72AF83D
:10533000FEF7D2F8FDF79EFFFEF7E0FFFFF70EF84D
:105340000A48FDF7C3F8012209490A48FDF756FE4D
:10535000012207490848FDF751FEFDF793FE00F0D2
:105360001BF8FDF7FDFE00F029F8FEE7D80100204C
:10537000AD000020C80300204003002010B5EFF36B
:10538000058111B16FF0050403E0002408B100F0BD
:10539000C7FE204610BD0000EFF3058010B16FF08E
:1053A000050070470448016811B14FF0FF307047A5
:1053B00001210160002070477C00002010B5EFF350
:1053C000058010B16FF0050010BD08480168012983
:1053D00002D04FF0FF3010BD054A002182F8141DA5
:1053E0000221016000F004FF002010BD7C000020BD
:1053F0000BE000E070B505464FF00004EFF30580C8
:1054000050BB0DB1686800E00020C10701D0012643
:1054100000E0002600071FD46DB1D5E9021021B1CC
:10542000502819D31EB1042002E020B114E001205D
:1054300000F0F5FF05E00EB1042000E0012000F0CF
:10544000E3FF040008D00DB1296800E0002100F05E
:1054500033FE0EB144F00104204670BD2DE9FF413A
:105460000B464FF00005EFF30581039549BB40B3B0
:105470008026182100244AB3176807B13C46976973
:1054800007B139464F1E382F02D21779FF0703D0D4
:10549000002004B0BDE8F081576907B1BE08D2F81A
:1054A00008C0BCF1000F0DD0D5685C2D18D312696F
:1054B0003AB137B18DE806103246214601F069FA5B
:1054C00003900DE0D7685FB912694AB903AACDE924
:1054D0000012B2B2214601F02FFA012800D0039544
:1054E0000398D6E72DE9F041134E0F460446F568C0
:1054F0003068001D00F0E2FC601C07D137B1316854
:10550000BDE8F0410D48091D00F028BD30682C446D
:10551000AC424460316805D2B06BBDE8F041091D72
:1055200000F004BD706B091D00F000FDB06A8442FC
:1055300000D2B462BDE8F0812C00002044090020B4
:105540002DE9F041054600F015FD2D4EB068401CD8
:10555000B06030682B4F10B1706930B32BE035600C
:10556000B068012827D1002404EB840007EB8000F9
:1055700000F0CEFC641C382CF6D3234800F0C8FCA5
:105580002148143000F0C4FC1F48283000F0C0FC53
:105590001D483C3000F0BCFC1B48503000F0B8FC0B
:1055A000194870631430B06305E03068E96AC06A76
:1055B000884200D83560706A401C70626864E86A8E
:1055C0003169884200D9306100EB800007EB800030
:1055D000291D00F0C3FC00F0EDFC706900280CD020
:1055E0003068E96AC06A884207D208494FF08050A3
:1055F0000860BFF34F8FBFF36F8FBDE8F0810000ED
:105600002C00002094040020F408002004ED00E0A9
:1056100038B500F0AFFC104C2068C8B90F4800F056
:1056200077FC0E48143000F073FC0C48E060143036
:1056300020610A4B0020F03B009003F15002102142
:105640000A2000F01AFF206010B105A100F034FD1F
:10565000BDE8384000F0AEBC68000020480A0020D9
:10566000546D72510000000030B4026C0B46002AE9
:105670000BD0C1681144C1608468A14201D30168A4
:10568000C16030BC1846FAF72CBE30BC70472DE91B
:10569000F041856B174604460026026C82B1C7B103
:1056A000E068FAF71EFEE168206C091AE1602268E2
:1056B000914202D2A168081AE060022F16D017E0CA
:1056C0002068A8B9A06801F009FA06460020A06089
:1056D0000EE06068FAF705FE216C606808446060BF
:1056E000A168884204D32068606001E005B16D1EA6
:1056F0006D1CA5633046BDE8F08110B5044690F8F6
:10570000590058B101280CD002280FD0502080F346
:105710001188BFF34F8FBFF36F8FFEE7206B00F050
:105720005DFC2046BDE8104000F058BC10BD0000F4
:1057300010484FF47051420706D0C01D0D4920F0AB
:105740000700411AC1F570510B4A00230144C2E918
:1057500000030839183A21F0070111604B600B6013
:105760000B1AC0E9001393604FF000405360506182
:10577000704700002811002098000020134E144D9F
:10578000A6F29C474FF08058DFF8489011E000F0F7
:10579000F1FBF068C468201D00F090FBA868401E73
:1057A000A8606868401E686000F004FC2046FFF7AF
:1057B000A4FF68680028EAD138680128F9D9C9F837
:1057C0000080BFF34F8FBFF36F8FF2E730090020E7
:1057D0002C00002004ED00E0002807D000218160AB
:1057E00001600B460A46C16000F0BEBE704770B54E
:1057F0001D46049C49B12260C4E90F0101212046E5
:1058000000F06EFE84F84C5070BD2460F4E72DE982
:10581000F05F0E46DDE90B941746834691009A46E9
:105820000A9DA522206BFAF76EFD6FF00301206B35
:1058300001EB8701084420F00707780707D05020C4
:1058400080F31188BFF34F8FBFF36F8FFEE74FF0E8
:10585000000866B100202218315C82F83410315CF7
:1058600011B1401C1028F6D384F8438001E084F87D
:105870003480382D00D33725E562C4E91358201D44
:1058800000F051FB04F1180000F04DFB2461C5F15C
:1058900038006462A061C4F8548084F8588052468D
:1058A0005946384600F05CFA2060B9F1000F01D08B
:1058B000C9F80040BDE8F09F30B5114900E011463D
:1058C0000A688242FBD34B685C18844203D140686B
:1058D00018444860084643681C18944209D1084C93
:1058E000183C2468A24209D052681A4442600A68EF
:1058F00012680260814200D0086030BD0460F9E7A0
:105900009800002070B5002441600B4D0061914269
:1059100006D8D11A8269914206D2011D286907E092
:105920009A4203D2994201D3012403E0011DE868A1
:1059300000F0FCFA204670BD6800002010B5044657
:1059400000F018FBA06B20B1002400F033FB2046D0
:1059500010BD0124F9E7000030B587B03C4D6EE082
:105960000198002806DADDE90301029A90470198C0
:10597000002864DB039C606910B1201D00F09EFAD2
:1059800005A800F0D7F8024601980A2857D2DFE8A8
:1059900000F00505052D334A05052D3394F8280040
:1059A00040F0010084F828000298A16903460144F0
:1059B0002046FFF7A7FF68B3216A2046884794F87E
:1059C000280040073BD5002000900298A1690023E1
:1059D00042181946204601F087F9D8B9502080F3C3
:1059E0001188BFF34F8FBFF36F8FFEE714F8280FB6
:1059F00020F00100207022E094F8280040F001001F
:105A000084F828000298A06128B181181346204626
:105A1000FFF778FF13E0502080F31188BFF34F8F1A
:105A2000BFF36F8FFEE794F82800810703D4204668
:105A300000F0D4FA03E020F0010084F828000022EE
:105A400001A9286800F0A2FE002889D107B030BD66
:105A5000680000202DE9FC410F46054600F00AFCD5
:105A600001A800F067F80446019818B101F0ACF8FD
:105A7000BDE8FC81254EAFB130690068D0B3002786
:105A8000291B3A46306800F029FB01F09DF80028F8
:105A9000EED11F494FF080500860BFF34F8FBFF326
:105AA0006F8FE5E7A542EBD801F08EF8F068274646
:105AB000C068C468201D00F001FA94F8280041076E
:105AC00019D5A0692B4641193A462046FFF71AFF1F
:105AD000A8B100200346014600902A46204601F066
