:020000040800F2
:10000000985A0020E9020008892F0008E927000813
:10001000A32C0008A10600086540000800000000AD
:10002000000000000000000000000000290200089D
:10003000E50600080000000085020008D13900082C
:100040000303000803030008030300080303000878
:100050000303000803030008030300080303000868
:100060000303000803030008030300080303000858
:100070000303000803030008030300080303000848
:10008000030300080303000803030008B506000883
:10009000A506000803030008030300080303000883
:1000A0000303000803030008030300080303000818
:1000B000B13A0008C13A000803030008030300082E
:1000C00003030008030300080303000803030008F8
:1000D00003030008454000085540000803030008DA
:1000E00003030008030300080303000803030008D8
:1000F00003030008030300080303000803030008C8
:1001000003030008030300080303000803030008B7
:1001100003030008030300080303000803030008A7
:100120000303000803030008030300080303000897
:10013000030300080000000000000000D5060008CE
:10014000C5060008030300080303000803030008B2
:100150000303000803030008030300080303000867
:100160000303000803030008030300080303000857
:100170000303000803030008000000000000000063
:10018000030300080303000800F002F800F03CF845
:100190000AA090E8000C82448344AAF10107DA45E2
:1001A00001D100F031F8AFF2090EBAE80F0013F0F8
:1001B000010F18BFFB1A43F0010318479C7C000095
:1001C000BC7C0000103A24BF78C878C1FAD8520726
:1001D00024BF30C830C144BF04680C6070470000C1
:1001E0000023002400250026103A28BF78C1FBD840
:1001F000520728BF30C148BF0B6070471FB507F0DA
:10020000E4FD1FBD10B510BD00F0E4F91146FFF785
:10021000F5FF04F0C9FE00F002FA03B4FFF7F2FFA5
:1002200003BC00F005FA00002C4B19680868B0E820
:10023000F04F80F30988BFF36F8F4FF0000080F319
:10024000118870470000000008480068006880F3CB
:1002500008884FF0000080F3148862B661B6BFF3DF
:100260004F8FBFF36F8F00DF00BF00BF08ED00E0CE
:10027000DFF80C00016841F470010160704700BFB5
:1002800088ED00E0EFF30980BFF36F8F134B1A681E
:100290001EF0100F08BF20ED108A20E9F04F10600B
:1002A00009B44FF0500080F31188BFF34F8FBFF3B4
:1002B0006F8F06F045FA4FF0000080F3118809BCFB
:1002C00019680868B0E8F04F1EF0100F08BFB0ECD6
:1002D000108A80F30988BFF36F8F70476000002099
:1002E000EFF3058070470000094880470948004740
:1002F000FEE7FEE7FEE7FEE7FEE7FEE7FEE7FEE7D6
:10030000FEE7FEE704480549054A064B7047000032
:100310009D3A00088901000898540020985A00204E
:10032000985600209856002053EA020C00F069808D
:100330002DE9F04B4FF00006002B1FBFB3FA83F5F9
:1003400003FA05F424FA05F65E4012BF1643B2FA2A
:1003500082F502FA05F4C5F120051EBF22FA05FC5C
:1003600044EA0C04203556EA044C4FEA144418BF02
:10037000641C4FF000084FF00009904271EB030C31
:1003800039D3002919BFB1FA81F701FA07F6B0FA9B
:1003900080F700FA07F6C7F120071EBF20FA07FC16
:1003A00046EA0C062037B6FBF4FCA7EB0507103F26
:1003B00007F01F0BCBF120060CFA0BFB2CFA06F60C
:1003C00044BFB3460026202FA4BF5E464FF0000B6B
:1003D0005BEA060C08BF4FF0010B19EB0B09ABFBF6
:1003E000027C48EB0608C01B06FB02CC0BFB03CCCF
:1003F00071EB0C01C1E70B46024641464846BDE899
:10040000F08B13B54FF000004FF00001AFF3008008
:10041000BDE81C407047032A40F2308010F0030C06
:1004200000F0158011F8013BBCF1020F624498BF47
:1004300011F801CB00F8013B38BF11F8013BA2F1E4
:10044000040298BF00F801CB38BF00F8013B11F05F
:10045000030300F06280083AC0F0088051F8043BC2
:10046000083A51F804CBA0E80810F5E7121D5CBF6C
:1004700051F8043B40F8043BAFF30080D20724BF9F
:1004800011F8013B11F801CB48BF11F8012B24BF33
:1004900000F8013B00F801CB48BF00F8012B704782
:1004A00002F0FF0343EA032242EA024200F069B885
:1004B0004FF0000200B5134694469646203922BFFD
:1004C000A0E80C50A0E80C50B1F12001BFF4F7AF48
:1004D000090728BFA0E80C5048BF0CC05DF804EB2A
:1004E000890028BF40F8042B08BF704748BF20F898
:1004F000022B11F0804F18BF00F8012B7047704796
:100500007047704710B500F05DF8006810BD10B579
:10051000044600F057F8046010BD10B5203AC0F052
:100520000B80B1E81850203AA0E81850B1E81850F4
:10053000A0E81850BFF4F5AF5FEA027C24BFB1E831
:100540001850A0E8185044BF18C918C0BDE81040A2
:100550005FEA827C24BF51F8043B40F8043B08BFAB
:100560007047D20728BF31F8023B48BF11F8012B72
:1005700028BF20F8023B48BF00F8012B70474FF01E
:1005800000020429C0F0128010F0030C3FF492AF77
:10059000CCF1040CBCF1020F18BF00F8012BA8BF6E
:1005A00020F8022BA1EB0C01FFF784BF5FEAC17CAE
:1005B00024BF00F8012B00F8012B48BF00F8012BE5
:1005C00070470000004870473854002000487047CA
:1005D000385400207546FFF7F9FFAE46050069461E
:1005E000534620F00700854618B020B5FFF78AFE75
:1005F000BDE820404FF000064FF000074FF0000824
:100600004FF0000B21F00701AC46ACE8C009ACE8A4
:10061000C009ACE8C009ACE8C0098D46704710B508
:100620000446AFF300802046BDE81040FFF7F5BD5B
:1006300001491820ABBEFEE726000200704700000B
:100640001548006840B91448001D006820B9012011
:10065000124981F842001DE00F48006848B90E4871
:10066000001D0068012804D102200C4981F84200D5
:1006700010E009480068012808D10748001D0068FB
:1006800020B90320054981F8420003E00420034912
:1006900081F84200704700000002424248020020F8
:1006A00000BFFEE710B5024800F04BFA10BD000095
:1006B000E000002010B5024800F043FA10BD000031
:1006C000E000002010B5024800F03BFA10BD000029
:1006D0000801002010B5024800F033FA10BD0000F8
:1006E00008010020704772B600BFFEE710B5024651
:1006F00092F82030012B01D0022B06D110684069FE
:10070000084314686061002010BD506A40F48020E6
:1007100050620120F8E7F0B504460D461E4694F8F5
:10072000207020688368A86800B900E000BF012F2E
:1007300001D0022F7CD103F0806030B903F000605B
:1007400018B903F08050002873D0C3F30161022967
:1007500005D9606A40F4000060620120F0BD01200C
:1007600088403060A86860B9B5F800C0E86840EA21
:100770004C5C206800F5C07000EB0110C0F800C0B0
:100780000FE0D5E901C040EACC00D5F80CC040EA42
:100790000C00D4F800C00CF5C07C0CEB011CCCF8AC
:1007A0000000D5F810C0206800F5C07000EB011003
:1007B000C0F804C0287D01280ED1206800F5C07063
:1007C00000EB0110406840F4807C206800F5C070A8
:1007D00000EB0110C0F804C0D079000692F806C002
:1007E00040EA0C4092F805C040EA0C2C10794CEA23
:1007F000000C206800F5C07000EB0110C0F80CC0C0
:10080000D078000692F802C040EA0C4092F801C08D
:1008100040EA0C2092F800C040EA0C00D4F800C076
:100820000CF5C07C0CEB011CCCF80800206801E042
:1008300016E00FE000F5C07000EB0110006840F01A
:10084000010C206800F5C07000EB0110C0F800C07A
:10085000002083E7606A40F40010606201207DE7B9
:10086000606A40F480206062012077E7F0B50446BA
:100870000A46216894F82050012D01D0022D7ED126
:10088000424901F50071086840F0010008600868FD
:1008900020F47C5008600868566A40EA0620086028
:1008A000107D00F01F06012000FA06F3C869984386
:1008B000C861A1F50071D069C8B9D1F80C0298439C
:1008C000C1F80C02908880B2968940EA064601F58C
:1008D0001070576940F83760108880B2168940EA76
:1008E000064601F51070576900EBC7004660D069F5
:1008F000012819D1D1F80C021843C1F80C029088D4
:1009000080B2168840EA064601F51070576940F833
:100910003760908980B2168940EA064601F510706A
:10092000576900EBC7004660906928B9D1F8040206
:100930009843C1F8040204E0D1F804021843C1F856
:100940000402106928B9D1F814029843C1F81402BE
:1009500004E0D1F814021843C1F81402106A012807
:1009600004D1D1F81C021843C1F81C02D1F80002CE
:1009700020F00100C1F800020020F0BDFFE7606A2E
:1009800040F4802060620120F7E70000006400402E
:10099000704770B5044694F82050012D01D0022D07
:1009A0007DD151B92068C06800F0030080B9606A49
:1009B00040F400106062012070BD2068006900F002
:1009C000030028B9606A40F4001060620120F3E778
:1009D000206800F5D87000EB0110006800F00400FA
:1009E0009060906840B9206800F5D87000EB011065
:1009F0000068400D106007E0206800F5D87000EB3B
:100A000001100068C0085060206800F5D87000EB45
:100A10000110006800F00200D060206800F5D87076
:100A200000EB0110406800F00F001061206800F535
:100A3000D87000EB0110406800F47F40000A90611C
:100A4000206800F5D87000EB01104068000C506180
:100A5000206800F5D87000EB0110806818702068DD
:100A600000F5D87000EB0110806800F47F40000AA8
:100A70005870206800F5D87000EB0110806800F411
:100A80007F00000C9870206800F5D87000EB011012
:100A90008068000ED870206800F5D87000E02FE064
:100AA00000EB0110C0681871206800F5D87000EBE9
:100AB0000110C06800F47F40000A5871206800F5FA
:100AC000D87000EB0110C06800F47F00000C987132
:100AD000206800F5D87000EB0110C068000ED871D6
:100AE00031B92068C06840F020002668F06005E059
:100AF0002068006940F020002668306100205BE734
:100B0000606A40F480206062012055E701460020C1
:100B100091F82020012A01D0022A11D10B689B688C
:100B200003F0806303B1401C0B689B6803F0006313
:100B300003B1401C0B689B6803F0805303B1401C59
:100B400070472DE9F05F044600252068466920685B
:100B5000D0F80490206887682068D0F80CA020683E
:100B6000D0F810B02068D0F8188006F001000028F6
:100B700055D007F00100C0B101202168886007F05E
:100B8000020018B1204600F02AFB0EE007F0040036
:100B900010B145F4006508E007F0080010B145F415
:100BA000805502E0204600F019FB07F48070C8B1C0
:100BB0004FF480702168886007F4007018B12046F7
:100BC00000F00FFB0EE007F4806010B145F4005513
:100BD00008E007F4006010B145F4804502E02046CB
:100BE00000F0FEFA07F48030C8B14FF4803021687D
:100BF000886007F4003018B1204600F0F4FA0EE0E7
:100C000007F4802010B145F4004508E007F4002007
:100C100010B145F4803502E0204600F0E3FA06F01A
:100C2000080038B10AF0100020B145F4007510201A
:100C30002168C86006F0040040B10AF0080028B13D
:100C400008202168C860204600F01EFA06F0020065
:100C500038B12068C06800F0030010B1204600F0F1
:100C600015FA06F0400038B10BF0100020B145F441
:100C7000806510202168086106F0200040B10BF06B
:100C8000080028B1082021680861204600F074FAA5
:100C900006F0100038B12068006900F0030010B1C0
:100CA000204600F06AFA06F4003040B109F0100066
:100CB00028B1102021684860204600F05FFA06F451
:100CC000803040B109F0080028B108202168486050
:100CD000204600F089FA06F4004088B309F00400C9
:100CE00078B306F4807020B108F0010008B145F037
:100CF000010506F4007020B108F0020008B145F0CB
:100D0000020506F4806020B108F0040008B145F047
:100D1000040506F40060A0B108F0700088B108F086
:100D20007000402817D006DC10280BD020280CD0EB
:100D3000302819D10CE0502810D0602814D110E0D0
:100D40001DE019E045F008050FE045F010050CE046
:100D500045F0200509E045F0400506E045F0800536
:100D600003E045F4807500E000BF00BF20688069A3
:100D700020F07000216888610420216848602DB14E
:100D8000606A284360622046FFF702FEBDE8F09FDC
:100D900070B504460CB9012070BD94F8200010B95C
:100DA000204600F0AFF82068006840F0010021689C
:100DB000086000F099FB05460DE000F095FB401B34
:100DC0000A2808D9606A40F400306062052084F87F
:100DD00020000120E0E72068406800F001000028C2
:100DE000EBD02068006820F002002168086000F065
:100DF0007BFB05460DE000F077FB401B0A2808D975
:100E0000606A40F400306062052084F82000012010
:100E1000C2E72068406800F002000028EBD1207E85
:100E2000012806D12068006840F080002168086031
:100E300005E02068006820F0800021680860607E7E
:100E4000012806D12068006840F040002168086051
:100E500005E02068006820F0400021680860A07E5E
:100E6000012806D12068006840F020002168086051
:100E700005E02068006820F0200021680860E07E1E
:100E8000012806D12068006820F010002168086061
:100E900005E02068006840F0100021680860207FAD
:100EA000012806D12068006840F008002168086029
:100EB00005E02068006820F0080021680860607F75
:100EC000012806D12068006840F00400216808600D
:100ED00005E02068006820F0040021680860D4E97B
:100EE0000201084321690843616908436168491E9A
:100EF00008432168C86100206062012084F8200056
:100F0000002049E710B586B00446142101A8FFF778
:100F1000CFFA5749206888424AD156480068401C99
:100F2000544908600846006801280FD100BF00201E
:100F300000905148006840F000704F490860084632
:100F4000006800F00070009000BF00BF00BF0020EC
:100F5000009049481038006840F0010046491039B7
:100F600008600846006800F00100009000BF00BF64
:100F70004FF4C05001900220029000200390032003
:100F800004900920059001A93C4800F0ADF9002229
:100F90000521132000F06CFB132000F059FB002208
:100FA0000521142000F064FB142000F051FB5DE0EB
:100FB00033492068884259D100BF002000902E4854
:100FC000006840F080602C4908600846006800F026
:100FD0008060009000BF00BF26480068401C254983
:100FE00008600846006801280FD100BF002000906B
:100FF0002148006840F000701F49086008460068FA
:1010000000F00070009000BF00BF00BF0020009003
:1010100019481038006840F002001749103908607C
:101020000846006800F00200009000BF00BF4FF4C7
:101030004050019002200290002003900320049071
:101040000920059001A90F4800F04EF90022052162
:101050003F2000F00DFB3F2000F0FAFA00220521AE
:10106000402000F005FB402000F0F2FA06B010BD71
:10107000006400401400002040380240000002409C
:1010800000680040000402407047000030B587B09F
:1010900004463148844228D10120304981F840007B
:1010A000002081F8410001202D4948702D4B6A46EF
:1010B00000212948FFF76DFC08B1FFF714FB0298E7
:1010C00090B9264890F84200012804D0234890F8AF
:1010D0004200022804D12349684604F009FE03E0D7
:1010E0002049684605F074FB00BF1F48844231D197
:1010F00001201B49C8701D4B6A4600211A48FFF7A2
:1011000048FC08B1FFF7EFFA029870B91749684632
:1011100003F0FAFD002506E0154901EBC51002F0C9
:10112000D9F9681C85B2082DF6DB0298042810D185
:10113000012010490870094890F84200032804D0A3
:10114000064890F84200042803D10849684603F095
:101150002DFB00BF07B030BDE0000020480200209A
:101160005A00002049000020080100205100002002
:101170008C0200205900002070477047704770B5FE
:10118000044694F82000012822D1022084F820008F
:101190002068006820F001002168086000F0A4F9D0
:1011A00005460DE000F0A0F9401B0A2808D9606A46
:1011B00040F400306062052084F82000012070BDFA
:1011C0002068406800F001000028EBD16062F6E77B
:1011D000606A40F4002060620120F0E770477047C9
:1011E0007047704770477047704770B50446A56DEB
:1011F00000F07AF9064694F83500022808D08020DD
:10120000606500BF002084F8340000BF012070BD7D
:101210002068006820F01600216808602068406996
:1012200020F0800021684861206C08B9A06C28B1CA
:101230002068006820F008002168086020680068C5
:1012400020F001002168086010E000F04DF9801BDB
:1012500005280BD920206065032084F8350000BFE5
:10126000002084F8340000BF0320D0E72068006825
:1012700000F001000028E8D194F85C103F2088407D
:10128000A860012084F8350000BF002084F83400F5
:1012900000BF00BFBBE7014691F83500022803D02C
:1012A0008020486501207047052081F835000868D6
:1012B000006820F001000A6810600020F3E70000D9
:1012C00070B5044600F010F906462546681C10B1BA
:1012D00004480078054400BF00F006F9801BA842CE
:1012E000FAD370BD20000020F8B502460B46002559
:1012F000002400200021D6E0012606FA01F51E6830
:1013000006EA0504AC4274D11E7906F00306012EEC
:1013100004D01E7906F00306022E13D190684F0008
:101320000326BE40B0434F00DE68BE4030439060AD
:10133000506801268E40B0431E79C6F300168E40D9
:10134000304350601E7906F00306032E09D0D068A2
:101350004F000326BE40B0434F009E68BE4030435E
:10136000D0601E7906F00306022E13D1CF0802F1D9
:10137000200656F827004E07F70E0F26BE40B04352
:101380004F07FF0E1E69BE403043CF0802F1200612
:1013900046F8270010684F000326BE40B0431E7970
:1013A00006F003064F00BE40304310605E6806F44E
:1013B0004036002E76D000BF002600963C4E3668A0
:1013C00046F480463A4F3E603E46366806F4804614
:1013D000009600BF00BF374E8F0856F827008E07D3
:1013E000370F0F26BE40B043334EB24202D1002623
:1013F00024E057E0314EB24201D101261EE0304ECA
:10140000B24201D1022619E02E4EB24201D103268A
:1014100014E02D4EB24201D104260FE02B4EB24211
:1014200001D105260AE02A4EB24201D1062605E086
:10143000284EB24201D1072600E008268F073F0F51
:10144000BE4030431B4E8F0846F82700224E3068BE
:10145000A0435E6806F4801606B120431E4E30603D
:10146000361D3068A0435E6806F4001606B12043BE
:10147000194E361D3060184E361F3068A0435E6826
:1014800006F4003606B12043134E361F3060361F77
:101490003068A0435E6806F4803606B120430E4EE5
:1014A000083E3060491C1029FFF426AFF8BD00004B
:1014B0004438024008380140000002400004024065
:1014C00000080240000C02400010024000140240DC
:1014D00000180240001C0240083C01400AB1816132
:1014E00001E00B0483617047014800687047000009
:1014F000180000200348006803490978084401499E
:1015000008607047180000202000002010B50D482A
:10151000006840F400700B4908600846006840F419
:10152000806008600846006840F48070086003200E
:1015300000F0DCF80F2000F007F800F05FF8002062
:1015400010BD0000003C02402DE9F04188B0044687
:101550000027B84600BF002001902348006840F0F3
:101560000200214908600846006800F0020001906E
:1015700000BF00BF02A903A800F08EF9069F1FB9A3
:1015800000F0B2F9054602E000F0AEF94500174858
:10159000B5FBF0F0A0F1010815481649086040F2CB
:1015A000E7311448C160C0F8048000210161816006
:1015B000816100F0BBFC064696B90E4800F00CFDB8
:1015C00006466EB91D2000F043F8102C07D2002209
:1015D00021461D2000F04CF80748046000E0012679
:1015E000304608B0BDE8F0814038024040420F006C
:1015F00000040040000200201C00002008B500BFCD
:10160000002000901148006840F480400F490860B5
:101610000846006800F48040009000BF00BF00BF93
:1016200000200090081F006840F08050091F0860EB
:101630000846006800F08050009000BF00BF002204
:101640000F21901E00F014F808BD0000443802403D
:1016500001460846002809DB00F01F0301229A40DA
:1016600043099B0003F1E023C3F8002100BF70474A
:101670002DE9F05F80460D461646002702F054FF24
:10168000074639462A46334601F00700C0F1070AEB
:10169000BAF1040F02D94FF0040A01E0C0F1070AC1
:1016A000D14600F1040ABAF1070F02D24FF0000A46
:1016B00001E0A0F1030AD4464FF0010A0AFA09FA40
:1016C000AAF1010A0AEA020A0AFA0CFA4FF0010B1F
:1016D0000BFA0CFBABF1010B0BEA030B4AEA0B0410
:1016E0002146404602F028FFBDE8F09F00BF00F011
:1016F0000702064B19684FF6FF031940044B0B43D2
:1017000043EA0221014B196000BF70470CED00E075
:101710000000FA0570B504460D460CB9012070BDF5
:101720005848006800F00700A84209D255490D70DA
:101730000846006800F00700A84201D00120EEE74B
:10174000207800F0020002281DD1207800F004006B
:10175000042805D14C48006840F4E0504A4908602C
:10176000207800F00800082805D14748006840F4B8
:101770006040454908604448006820F0F000A168D6
:10178000084341490860207800F00100A8B3606870
:10179000012807D13C4808380068C0F34040B8B978
:1017A0000120BCE76068022802D06068032807D1E6
:1017B000354808380068C0F3406048B90120AEE7FA
:1017C000314808380068C0F3400008B90120A6E796
:1017D0002D48006820F00300616808432A4908602A
:1017E000FFF782FE064609E0FFF77EFE801B41F20E
:1017F0008831884202D9032091E707E02248006837
:1018000000F00C006168B0EB810FEDD11D4800685D
:1018100000F00700A84209D91A490D70084600686F
:1018200000F00700A84201D0012078E7207800F0FE
:101830000400042807D11448006820F4E050E1684F
:10184000084311490860207800F00800082808D1F2
:101850000D48006820F46040216940EAC1000A494F
:10186000086000F061F808490968C1F30311074AEC
:10187000515CC8400649086006480068FFF764FEEE
:1018800000204CE7003C024008380240287E000857
:10189000240000201C0000200F2202600D4A126864
:1018A00002F0030242600B4A126802F0F00282600A
:1018B000084A126802F4E052C260064A126802F452
:1018C0006042D2080261044A126802F007020A600C
:1018D0007047000008380240003C024001480068A0
:1018E000704700002400002000B5FFF7F7FF04490F
:1018F0000968C1F38221034A515CC84000BD000061
:1019000008380240387E000800B5FFF7E7FF0449B9
:101910000968C1F34231034A515CC84000BD000070
:1019200008380240387E00082DE9F04700240025E1
:101930000026A1462548006800F00C0020B10428CC
:1019400005D008283AD105E0DFF8849039E0DFF8C7
:10195000849036E01D48001F006800F03F041B48DB
:10196000001F006800F4800078B11A481749091F69
:101970000968C1F38811A0FB0170014622460023CB
:101980003846FEF7D1FC05460EE011480F49091F05
:101990000968C1F38811A0FB0170014622460023AB
:1019A0003846FEF7C1FC05460848001F0068C0F332
:1019B0000140401C4600B5FBF6F902E0DFF810904C
:1019C00000BF00BF4846BDE8F0870000083802406D
:1019D0000024F40000127A00F8B504460CB9012086
:1019E000F8BD207800F00100002874D0F9480068A4
:1019F00000F00C0004280DD0F648006800F00C0040
:101A0000082813D1F348001F006800F48000B0F5E7
:101A1000800F0BD1EF4808380068C0F34040002821
:101A200059D06068002856D10120D9E700BF60680E
:101A3000B0F5803F08D1E7480838006840F48030AE
:101A4000E449083908601EE06068B0F5A02F0DD1A8
:101A5000E0480838006840F48020DE490839086012
:101A60000846006840F4803008600CE0D948083827
:101A7000006820F48030D7490839086008460068BB
:101A800020F48020086000BF606890B1FFF72CFD53
:101A9000054606E0FFF728FD401B642801D9032016
:101AA0009EE7CC4808380068C0F340400028F1D0D9
:101AB00011E0FFF719FD054606E0FFF715FD401B95
:101AC000642801D903208BE7C24808380068C0F3B6
:101AD00040400028F1D1207800F0020002285FD1B8
:101AE000BC48006800F00C0058B1BA48006800F02B
:101AF0000C0008281CD1B748001F006800F48000C3
:101B0000B0B9B44808380068C0F3400020B1E068BC
:101B1000012801D0012063E7AE480838006820F0B2
:101B2000F800216940EAC100AA490839086037E095
:101B3000E06800B30120A8490860FFF7D5FC05461E
:101B400006E0FFF7D1FC401B022801D9032047E73C
:101B5000A04808380068C0F340000028F1D09D4834
:101B60000838006820F0F800216940EAC10099496E
:101B70000839086014E0002097490860FFF7B4FCBA
:101B8000054606E0FFF7B0FC401B022801D9032000
:101B900026E7904808380068C0F340000028F1D1DB
:101BA000207800F0080008282CD16069A8B1012035
:101BB0008A490860FFF798FC054606E0FFF794FCA9
:101BC000401B022801D903200AE782486C300068D4
:101BD000C0F340000028F1D014E000207F490860E5
:101BE000FFF782FC054606E0FFF77EFC401B02285B
:101BF00001D90320F4E677486C300068C0F3400058
:101C00000028F1D1207800F00400042870D10027CA
:101C100070483830006800F0805090B900BF002054
:101C200000906C483830006840F080506949383185
:101C300008600846006800F08050009000BF00BFB8
:101C400001276748006800F48070B0B964480068F4
:101C500040F4807062490860FFF746FC054606E0E4
:101C6000FFF742FC401B022801D90320B8E65C487C
:101C7000006800F480700028F2D000BFA06801283E
:101C800008D154486830006840F00100514968317B
:101C900008601DE0A06805280DD14E486830006836
:101CA00040F004004B49683108600846006840F085
:101CB000010008600CE047486830006820F001002F
:101CC0004449683108600846006820F00400086054
:101CD00000BFA068A8B1FFF707FC054609E0FFF7C1
:101CE00003FC401B41F28831884202D9032077E689
:101CF00026E0384868300068C0F340000028EED085
:101D000013E0FFF7F1FB054608E0FFF7EDFB401B92
:101D100041F28831884201D9032061E62D486830BC
:101D20000068C0F340000028EFD1012F07D12948F7
:101D30003830006820F0805026493831086000BFF4
:101D4000A069002845D02348006800F00C0008284E
:101D50005DD0A069022845D100201F490866FFF721
:101D6000C3FB054606E0FFF7BFFB401B022801D975
:101D7000032035E6174808380068C0F340600028A3
:101D8000F1D1D4E907010843616A40EA81110122D7
:101D9000A06AC2EB500041EA00412C20005D41EAFC
:101DA00000600C49091F086001200B490866FFF715
:101DB0009BFB054606E0FFF797FB401B022801D975
:101DC00003200DE6034808380068C0F3406000288F
:101DD000F1D049E00838024000004742800E4742F7
:101DE00000700040002021490866FFF77DFB054692
:101DF00006E0FFF779FB401B022801D90320EFE53D
:101E00001B480068C0F340600028F2D12CE0A069B4
:101E1000012800D1E4E51648001D0668A0690128E4
:101E200020D006F48001E06981421BD106F03F0119
:101E3000206A814216D147F6C0703040616AB0EB2B
:101E4000811F0FD106F440310122A06AC2EB50007D
:101E5000B1EB004F06D106F070612C20005DB1EBB4
:101E6000006F01D00120BBE50020B9E5000047422A
:101E7000003802407047704730B502460B4600BF3D
:101E800092F83C00012801D1022030BD012082F8E7
:101E90003C0000BF022082F83D00106844681068D2
:101EA000816824F070041868044310684460184D79
:101EB0001068A8421BD01068B0F1804F17D0154DA4
:101EC0001068A84213D0144D1068A8420FD0134DCB
:101ED0001068A8420BD0124D1068A84207D0114DCF
:101EE0001068A84203D0104D1068A84205D121F017
:101EF00080015868014310688160012082F83D002C
:101F000000BF002082F83C0000BF00BFBDE700001A
:101F1000000001400004004000080040000C0040A8
:101F200000040140004001400018004010B5044684
:101F30000CB9012010BD94F83D0028B9002084F8A8
:101F40003C00204600F026F8022084F83D00211DC8
:101F5000206801F0BDFD012084F8460000BF84F830
:101F60003E0001213F2001554020015541200155EF
:101F700000BF00BF012084F84200432001554420E7
:101F800001554520015500BF012084F83D00002087
:101F9000D0E7000038B504462068B0F1804F17D173
:101FA00000BF002000900B48006840F00100094984
:101FB00008600846006800F00100009000BF00BF04
:101FC000002205211C20FFF753FB1C20FFF740FBDC
:101FD00038BD000040380240014691F83D0001281C
:101FE00001D001207047022081F83D000868C068D8
:101FF00040F001000B68D8601A4B086898421BD06B
:102000000868B0F1804F17D0174B0868984213D07A
:10201000164B086898420FD0154B086898420BD0B1
:10202000144B0868984207D0134B0868984203D0B5
:10203000124B086898420CD10868806800F00702CB
:10204000062A0CD00868006840F001000B68186090
:1020500005E00868006840F001000B681860002087
:10206000C0E70000000001400004004000080040FC
:10207000000C0040000401400040014000180040F6
:102080002DE9F04104460D46002700BF94F83C00BE
:10209000012802D10220BDE8F081012084F83C0033
:1020A00000BF022084F83D002068866826F077068D
:1020B00026F47F46206886602868502833D00CDCE0
:1020C000202850D004DC00284BD0102851D149E002
:1020D000302849D040284CD139E060282DD07028D4
:1020E00007D0B0F5805F03D0B0F5005F41D10DE0BF
:1020F00041E0D5E902136A68206801F055FD2068C7
:10210000866846F077062068866034E0D5E90213D9
:102110006A68206801F048FD2068806840F48040CB
:102120002168886027E0EA686968206801F050FD4E
:102130005021206801F043FD1DE0EA6869682068CD
:1021400001F059FD6021206801F039FD13E0EA68D3
:102150006968206801F03CFD4021206801F02FFDF6
:1021600009E000BF00BF00BF2968206801F027FD1B
:1021700001E0012700BF00BF012084F83D0000BF3F
:10218000002084F83C0000BF384684E7704710B553
:10219000044620680069C0F34000D8B12068C068D8
:1021A000C0F34000B0B16FF0020021680861012067
:1021B00020772068806900F0030018B12046FFF7FF
:1021C000E5FF05E0204600F0ADF8204600F0ABF852
:1021D0000020207720680069C0F38000D8B1206813
:1021E000C068C0F38000B0B16FF0040021680861DE
:1021F000022020772068806900F4407018B12046E2
:10220000FFF7C4FF05E0204600F08CF8204600F000
:102210008AF80020207720680069C0F3C000D8B198
:102220002068C068C0F3C000B0B16FF0080021683A
:102230000861042020772068C06900F0030018B10D
:102240002046FFF7A3FF05E0204600F06BF820468C
:1022500000F069F80020207720680069C0F30010C2
:10226000D8B12068C068C0F30010B0B16FF01000A2
:1022700021680861082020772068C06900F4407058
:1022800018B12046FFF782FF05E0204600F04AF82B
:10229000204600F048F8002020772068006900F010
:1022A000010058B12068C06800F0010030B16FF043
:1022B000010021680861204600F036F820680069B6
:1022C000C0F3C01058B12068C068C0F3C01030B16E
:1022D0006FF08000216808612046FFF7CBFD206881
:1022E0000069C0F3801058B12068C068C0F3801046
:1022F00030B16FF0400021680861204600F036F8E8
:1023000020680069C0F3401058B12068C068C0F36D
:10231000401030B16FF02000216808612046FFF7BF
:10232000AAFD10BD7047704710B504460A492068E1
:10233000884201D1FFF7DEF8084884420BD1002023
:1023400007490870C8704870C8700120054981F8B5
:1023500041000549088010BD000400403001002004
:102360005A000020480200200000002070477047FB
:10237000704700002DE9F84F044620680568206882
:10238000C668206847694FF00009CA4605F00F0982
:10239000B9F1000F0AD105F0200038B106F0200095
:1023A00020B1204601F08BFCBDE8F88FB9F1000F99
:1023B0007CD007F0010018B906F49070002875D0A1
:1023C00005F0010030B106F4807018B1206C40F0C7
:1023D0000100206405F0040030B107F0010018B1DD
:1023E000206C40F00200206405F0020030B107F0DC
:1023F000010018B1206C40F00400206405F00800D2
:1024000048B106F0200010B907F0010018B1206CA7
:1024100040F008002064206C002846D005F0200021
:1024200028B106F0200010B1204601F048FC2068D9
:102430004069C0F3801A206C00F0080010B9BAF1AE
:10244000000F2DD0204601F0F4FB2068406900F019
:102450004000402820D100BF00BF2168143151E85E
:10246000001F21F040002168143141E80002002AD9
:10247000F3D100BFA06B50B17548A16B0865A06B8C
:10248000FEF709FF88B1A06B016D88470DE020467B
:10249000FFF76EFF09E009E02046FFF769FF04E05F
:1024A0002046FFF765FF002020647DE7206B0128B0
:1024B00076D105F01000002872D006F01000002838
:1024C000FAD000BF002000902068006800902068CB
:1024D0004068009000BF00BF2068406900F04000E5
:1024E00040285ED1A06B006840681FFA80F8B8F100
:1024F000000F54D0A08D404551DDA4F82E80A06B74
:10250000C069B0F5807F43D000BF00BF21680C31A7
:1025100051E8001F21F4807021680C3141E800026D
:10252000002AF3D100BF00BF00BF2168143151E879
:10253000001F21F001002168143141E80002002A47
:10254000F3D100BF00BF00BF2168143151E8001F64
:1025500021F040002168143141E80002002AF3D143
:1025600000BF202084F83E000020206300BF00BF91
:1025700021680C3151E8001F21F0100021680C3156
:1025800041E80002002AF3D100BFA06BFEF72DFE48
:10259000A08DE28D801A81B22046FFF7E8FE03E7A6
:1025A00040E0A08DE18D401A1FFA80F8E08DC0B3A5
:1025B000B8F1000F35D000BF00BF21680C3151E8E1
:1025C000001F21F4907021680C3141E80002002ABC
:1025D000F3D100BF00BF00BF2168143151E8001FD4
:1025E00021F001002168143141E80002002AF3D1F2
:1025F00000BF202084F83E000020206300BF00BF01
:1026000021680C3151E8001F21F0100021680C31C5
:1026100041E80002002AF3D100BF41462046FFF7FF
:10262000A6FEC1E605F0800030B106F0800018B1CA
:10263000204601F0D7FCB7E605F0400030B106F0C7
:10264000400018B1204601F02AFBADE600BFABE622
:102650001F3C000810B504460CB9012010BDA0694C
:1026600000B100E000BF94F83D0028B9002084F8D4
:102670003C00204600F028F8242084F83D00206823
:10268000C06820F400502168C860204601F094FB27
:102690002068006920F49040216808612068406942
:1026A00020F02A00216848612068C06840F400508A
:1026B0002168C86000202064202084F83D0084F850
:1026C0003E000020CAE7000010B586B00446142181
:1026D00001A8FDF7EDFE3F492068884239D100BFCF
:1026E000002000903C48006840F010003A49086023
:1026F0000846006800F01000009000BF00BF00BF57
:102700000020009034481438006840F0010032493D
:10271000143908600846006800F00100009000BF0E
:1027200000BF4FF4C060019002200290012003908E
:10273000032004900720059001A92848FEF7D4FD46
:10274000002205212520FEF793FF2520FEF780FFBC
:102750003DE023492068884239D100BF0020009025
:102760001D48001F006840F400301B49091F086025
:102770000846006800F40030009000BF00BF00BFB2
:102780000020009014481438006840F001001249FD
:10279000143908600846006800F00100009000BF8E
:1027A00000BF0C2001900220029001200390032022
:1027B00004900720059001A90848FEF795FD002226
:1027C00005212620FEF754FF2620FEF741FF06B024
:1027D00010BD0000001001404438024000000240DB
:1027E000004400407047704700BFFEE7F7EE000A64
:1027F000B0EE600A00224265D0ED120AF5EEC00A82
:10280000F1EE10FA03DBFFEE000AB0EE600AD0ED45
:10281000120AFDEEE00A10EE901A09B28183B0F9B7
:10282000141000EE901AF8EEE00AF0EEE00AB3EEB3
:102830000E1AF4EEC10AF1EE10FA03D8816D491CAC
:10284000816501E000228265816D32290BDB002267
:102850008265DFED050AC0ED1D0A012242650421F3
:1028600001600021818370470000000000B593B033
:1028700000200B900C900F90109008201190800178
:102880000D905F48008B000A8DF82C005C48007E9C
:102890008DF82D005A48B0F89800000A8DF82E00E7
:1028A000574890F898008DF82F005548B0F8180157
:1028B000000A8DF83000524890F818018DF8310068
:1028C0004F48B0F89801000A8DF832004C4890F853
:1028D00098018DF833000AAB0BAA0DA94948FDF702
:1028E0001AFF08B1FDF7FFFE00200290039006904A
:1028F00007900820089000208DF8240040F2FF1077
:1029000004903F4890F8040213280BD13C48B0F8DB
:102910000802000A8DF80800394890F808028DF87E
:1029200009000AE03648B0F81802000A8DF80800DD
:10293000334890F818028DF80900314890F80402E5
:1029400013280BD12E48B0F88802000A8DF80A002F
:102950002B4890F888028DF80B000AE02848B0F860
:102960009802000A8DF80A00254890F898028DF820
:102970000B00234890F8040213280BD12048B0F82C
:102980000803000A8DF80C001D4890F808038DF824
:102990000D000AE01A48B0F81803000A8DF80C0080
:1029A000174890F818038DF80D00154890F80402A8
:1029B00013280BD11248B0F88803000A8DF80E00D6
:1029C0000F4890F888038DF80F000AE00C48B0F823
:1029D0009803000A8DF80E00094890F898038DF8C6
:1029E0000F0001AB02AA04A90648FDF794FE10B13E
:1029F000FDF779FE02E001200349887013B000BDA5
:102A00008C020020080100205A00002010B50F4859
:102A10000F4908600320486000210D488160C160B3
:102A20004FF4002101614FF4401141610021017612
:102A30000121417600218176C17601774177FEF749
:102A4000A7F908B1FDF74FFE10BD0000006400407B
:102A5000E000002010B50F480F49086003204860CF
:102A600000210D488160C1604FF4002101614FF4E5
:102A700040114161002101760121417600218176DA
:102A8000C17601774177FEF783F908B1FDF72BFE98
:102A900010BD0000006800400801002010B5074A82
:102AA0000021074802F0FAFA06490860064A0021A8
:102AB000064802F0F3FA0649086010BDE07D000800
:102AC0004D39000804000020047E0008DD360008AF
:102AD0000800002000B587B0142102A8FDF7E8FC2B
:102AE00000BF002001902B48006840F004002949F5
:102AF00008600846006800F00400019000BF00BFB5
:102B000000BF002001900846006840F08000086087
:102B10000846006800F08000019000BF00BF00BFC1
:102B2000002001900846006840F001000860084657
:102B3000006800F00100019000BF00BF00BF00204E
:102B400001900846006840F00200086008460068EE
:102B500000F00200019000BF00BF01220F210E48CB
:102B6000FEF7BCFC0F20029001200390002004908F
:102B70000220059002A90848FEF7B6FB0320029048
:102B8000002003900120049002A90448FEF7ACFB4A
:102B900007B000BD30380240000802400004024087
:102BA00000B587B000200390049005900690019036
:102BB00002904FF080401449086053204860002183
:102BC0001148816042F20F71C160002101618021D2
:102BD0008161FFF7ABF908B1FDF785FD4FF4805037
:102BE000039003A90848FFF74BFA08B1FDF77BFDF6
:102BF00000200190029001A90348FFF73DF908B1B8
:102C0000FDF771FD07B000BD3001002010B50B4885
:102C10000B4908604FF4E1304860002108488160AA
:102C2000C16001610C21416100218161C161FFF737
:102C300011FD08B1FDF757FD10BD00000010014067
:102C40007801002010B50B480B4908604FF4E130C3
:102C50004860002108488160C16001610C21416128
:102C600000218161C161FFF7F5FC08B1FDF73BFD73
:102C700010BD000000440040BC010020B4EEE00A9A
:102C8000F1EE10FA01DDB0EE600AB1EE601AB4EEBA
:102C9000C10AF1EE10FA03D2B1EE601AB0EE410AA9
:102CA000704700BFFEE7000010B50024C3E0B04845
:102CB00000EBC4100079152800D1BFE0AC4800EB50
:102CC000C4100068001F082871D2DFE800F0044F2C
:102CD000B120B1B171ABA64901EBC411B1F9141027
:102CE00001EE101AB8EEC11AF0EE410AA04901EB4C
:102CF000C411B1F91C1001EE101AB8EEC11AB0EEF1
:102D0000410A9C4901EB841000F054F991E0984984
:102D100001EBC41191ED1D1AF0EE410A944901EB4B
:102D2000C411B1F91A1001EE101AB8EEC11AB0EEC2
:102D3000410A914901EB841000F0DCF98C4901EB68
:102D4000C411B1F9141001EE101AB8EEC11AF0EE68
:102D5000410A894901EB841191ED0E1AB0EE410A46
:102D6000844901EB841000F025F962E0804901EB11
:102D7000C41001F051FA7E4901EBC411B1F91410ED
:102D800001EE101AB8EEC11AF0EE410A784901EBD3
:102D9000C411B1F91C1001EE101AB8EEC11AB0EE50
:102DA000410A744901EB841000F004F941E03FE06E
:102DB0006F4901EBC410FFF719FD6D4901EBC41118
:102DC000B1F9141001EE101AB8EEC11AF0EE410A72
:102DD000674901EBC411B1F91C1001EE101AB8EEED
:102DE000C11AB0EE410A634901EB841000F0E2F829
:102DF0005F4800EBC410B0F9500001EE100AB8EEC5
:102E0000C11AF0EE410A5B4800EB841090ED0E1AF7
:102E1000B0EE410AFFF732FF564800EB841080ED18
:102E20000E0A00BF0020524901EBC411088300E0E4
:102E300000BF00BF641C082CFFF639AF00BF0020A4
:102E400090E04B4901EBC0110968062919D04849A7
:102E500001EBC011097911292BD1454901EBC011B2
:102E600009680B2925D0424901EBC011B1F91610B0
:102E700043F2C822914205DD0B213D4A02EBC0120C
:102E800011606EE03B4901EB801191ED0E0ADFED20
:102E90003B0A20EE200ADFED3A0A80EE201ABDEE52
:102EA000C10A10EE101A09B2314A02EBC0121183A6
:102EB00057E02F4901EBC011097912292BD12C4978
:102EC00001EBC01109680B2925D0294901EBC0117C
:102ED000B1F9161040F63C72914205DD0B21244AEF
:102EE00002EBC01211603CE0224901EB801191ED30
:102EF0000E0ADFED240A20EE200ADFED220A80EE22
:102F0000201ABDEEC10A10EE101A09B2184A02EBDF
:102F1000C012118325E0164901EBC011097913296C
:102F20001AD1134901EBC01109680B2914D01049BB
:102F300001EBC011B1F9161040F63A02914205DDDD
:102F40000B210B4A02EBC01211600AE00022084973
:102F500001EBC0110A8104E00021054A02EBC01216
:102F60001183401C0828FFF66CAFFFF77FFC10BDF3
:102F70008C0200208C0600208C0800200000804677
:102F800000409C4600401C4600BFFEE7B4EEE00A4D
:102F9000F1EE10FA01DDB0EE600AB1EE601AB4EEA7
:102FA000C10AF1EE10FA03D2B1EE601AB0EE410A96
:102FB0007047000000B5F0EE401AB0EE602A31EE26
:102FC000C20A80ED000A90ED000AD0ED010A30EE51
:102FD000600A80ED050A90ED081AD0ED002A21EE76
:102FE000221AB0EE410A90ED0B1AF0EE410AFFF7FB
:102FF000CDFFD0ED070A90ED051A00EE810AD0ED65
:10300000000A90ED021A70EE810A90ED011AF0EEBE
:10301000002A42EEC10A90ED091A01EE200AD0ED15
:103020000E0A30EE200A80ED0E0A90ED0E0AD0ED69
:103030000C0AB4EEE00AF1EE10FA03DD90ED0C0A92
:1030400080ED0E0A90ED0E0AD0ED0C0AF1EE600A4A
:10305000B4EEE00AF1EE10FA05D290ED0C0AB1EEF2
:10306000400A80ED0E0A90ED010A80ED020A90ED13
:10307000000A80ED010A90ED000AB5EEC00AF1EEFB
:1030800010FA02DD90ED000A03E090ED000AB1EEC7
:10309000400AD0ED060AB4EEE00AF1EE10FA03D2CF
:1030A0009FED020A80ED0E0A00BD00000000000046
:1030B00080ED070AC0ED080A80ED091A80ED062AA6
:1030C000C0ED0C1AF1EE613AC0ED0D3A80ED0B3A0D
:1030D000C0ED0A2ADFED063AC0ED023AC0ED013A32
:1030E000C0ED003ADFED023AC0ED0E3A7047000045
:1030F0000000000000B5F0EE401AB0EE602A90F833
:103100003C1001290AD131EEC20A80ED010A31EEEC
:10311000C20A80ED020A002180F83C1031EEC20A9A
:1031200080ED000A90ED040AD0ED000A30EE200A8E
:1031300080ED040A90ED000AD0ED010A30EE600A3D
:1031400080ED050A90ED081AD0ED042A21EE221A2E
:10315000B0EE410A90ED081AF0EE410AFFF716FFB3
:10316000D0ED070A90ED001A00EE810AD0ED090AB1
:1031700090ED051A00EE810A80ED0E0A90ED0E0A20
:10318000D0ED0C0AB4EEE00AF1EE10FA03DD90ED9A
:103190000C0A80ED0E0A90ED0E0AD0ED0D0AB4EE89
:1031A000E00AF1EE10FA03D290ED0D0A80ED0E0A5E
:1031B00090ED000A80ED010A90ED000AB5EEC00A1C
:1031C000F1EE10FA02DD90ED000A03E090ED000A46
:1031D000B1EE400AD0ED060AB4EEE00AF1EE10FAC4
:1031E00003D29FED020A80ED0E0A00BD0000000030
:1031F00010B59FED8E3ADFED8E2AB2EE042ADFED98
:103200008C1A9FED8C1ADFED8C0AB2EE080A8B48FF
:10321000FFF74EFF9FED853ADFED852AB2EE042AD7
:10322000DFED831A9FED831ADFED830AB2EE080A01
:1032300082484030FFF73CFF9FED7C3ADFED7C2A6F
:10324000B2EE042ADFED7A1A9FED7A1ADFED7A0AE0
:10325000B2EE080A79488030FFF72AFF9FED733AF3
:10326000DFED732AB2EE042ADFED711A9FED711AB9
:10327000DFED710AB2EE080A7048C030FFF718FFA0
:103280009FED6A3ADFED6A2AB2EE042ADFED681A92
:103290009FED681ADFED680AB2EE080A6848FFF78A
:1032A00007FF9FED623ADFED622AB2EE042ADFEDFE
:1032B000601A9FED601ADFED600AB2EE080A6048FE
:1032C0004030FFF7F5FE9FED593ADFED592AB2EE97
:1032D000042ADFED571A9FED571ADFED570AB2EEB9
:1032E000080A57488030FFF7E3FE9FED503ADFEDC4
:1032F000502AB2EE042ADFED4E1A9FED4E1ADFED92
:103300004E0AB2EE080A4E48C030FFF7D1FE9FEDDC
:10331000473ADFED4C2AB7EE002ADFED4A1A9FED5F
:103320004A1ADFED4A0A9FED4A0A4A48FFF7C0FEF3
:103330009FED3E3ADFED432AB7EE002ADFED411A5A
:103340009FED411ADFED410A9FED410A41484030AF
:10335000FFF7AEFE9FED353ADFED3A2AB7EE002AD1
:10336000DFED381A9FED381ADFED380A9FED380A85
:1033700038488030FFF79CFE9FED2C3ADFED312A74
:10338000B7EE002ADFED2F1A9FED2F1ADFED2F0A7F
:103390009FED2F0A2F48C030FFF78AFE9FED233A9A
:1033A000DFED282AB7EE002ADFED261A9FED261A58
:1033B000DFED260A9FED260A2748FFF779FE9FEDED
:1033C0001B3ADFED202AB7EE002ADFED1E1A9FED33
:1033D0001E1ADFED1E0A9FED1E0A1F484030FFF740
:1033E00067FE9FED123ADFED172AB7EE002ADFEDF8
:1033F000151A9FED151ADFED150A9FED150A1648EF
:103400008030FFF755FE9FED093ADFED0E2AB7EE4B
:10341000002ADFED0C1A9FED0C1ADFED0C0A9FED70
:103420000C0A0D48C030FFF743FE10BD0000FA4300
:1034300000401C46CDCCCC3DCDCCCC3E8C060020F3
:103440008C07002000C0DA450AD7233C00000000AA
:10345000333323418C0800208C090020F0EE400A11
:1034600007210160BDEEE00A10EE101A09B2418397
:10347000B0F91A1000EE101AB8EEC00A30EEC00A09
:10348000B5EEC00AF1EE10FA08DDB0F91A1000EE40
:10349000101AB8EEC00A30EEC00A09E0B0F91A10EE
:1034A00000EE101AB8EEC00A30EEC00AB1EE400AC3
:1034B000B7EE001AB4EEC10AF1EE10FA04D2002100
:1034C0008183B7EE000A70479FED010AFBE7000019
:1034D00000000000DFED7B0AB0EE600A90F8781083
:1034E00031B9418AA0F87A10012180F8781070472C
:1034F0000179112902D012290CD105E0F3EE030A5B
:103500007149C1ED000A06E0DFED700A6E49C1EDB8
:10351000000A00E000BF00BF6D49097831B1418A5F
:10352000A0F87A1000216A4A1170E0E7B0F914108F
:1035300000295EDB418AB0F87A20914236DA418A6E
:1035400041F6FF721144B0F87A20891A002907DD8C
:10355000418A41F6FF721144B0F87A20891A06E0D8
:10356000B0F87A10428A41F6FF731A44891A40F281
:10357000E242914231DA418A41F6FF721144B0F8D9
:103580007A20891A00EE901AB8EEE01ADFED511A8F
:10359000C1EE210A4C4991ED001ADFED4F1A81EE80
:1035A000812A60EE820AB0EE600A16E0418AB0F825
:1035B0007A20891A00EE901AB8EEE01ADFED451A6B
:1035C000C1EE210A404991ED001ADFED431A81EE68
:1035D000812A60EE820AB0EE600AB5EEC00AF1EE12
:1035E00010FA69DDD0ED1D0A70EE800AC0ED1D0AEB
:1035F00062E0B0F9141000295EDA418AB0F87A204E
:10360000914237DD418A41F6FF72511AB0F87A20B3
:103610001144002907DD418A41F6FF72511AB0F8C2
:103620007A20114407E0418A41F6FF72511AB0F83E
:103630007A201144494240F2E242914231DA418A11
:1036400041F6FF72511AB0F87A20114400EE901A38
:10365000B8EEE01ADFED1F1AC1EE210A1A4991ED0A
:10366000001ADFED1D1A81EE812A60EE820AB0EEAB
:10367000600A16E0418AB0F87A20891A00EE901AA2
:10368000B8EEE01ADFED131AC1EE210A0E4991EDF2
:10369000001ADFED111A81EE812A60EE820AB0EE87
:1036A000600AB5EEC00AF1EE10FA05D2D0ED1D0A9F
:1036B00070EE800AC0ED1D0A418AA0F87A1000BFA2
:1036C00015E7000000000000440000200000104248
:1036D0004800002000F8FF450000B44300BF0D483B
:1036E0000088012811D10C4890F84200012804D02C
:1036F000094890F84200022802D100F00FF801E0DA
:1037000000F088F8002003490880012001F070FCD7
:10371000E5E7000000000020480200203EB5002040
:103720000190029000245BE034480068204408289F
:1037300055DA00200090314800682044304901EB00
:10374000C010D0ED1D0AB0EE600A00226946DFED20
:103750002D0A01A800F061FF284800682044284A8B
:1037600002EBC010B0F914106A4601A800F070FF17
:10377000224800682044224A02EBC010B0F916101B
:103780006A4601A800F064FF1F4890F84200012833
:103790000FD11A4800882044401C80B240F4807544
:1037A000082301AA2946194801F088FA012018497E
:1037B0000870154890F8420002280FD10F48008881
:1037C0002044401C80B240F40075082301AA294619
:1037D0000E4801F073FA01200D49087000BF641C07
:1037E000022CA1DB05480068801C044908600846DB
:1037F0000068082801DB002008603EBD3C00002076
:103800008C02002000007A4448020020E0000020E2
:103810005A0000203EB500200190029000247EE076
:10382000414800682044062878DA002000903E488D
:103830000068204400EBC0003C4901EB8000D0ED63
:10384000020AB0EE600A00226946F7EE000A01A8FB
:1038500000F0C6FE34480068204400EBC000334945
:1038600001EB8000D0ED030AB0EE600A0022694649
:10387000DFED2F0A01A800F0B3FE2B4800682044BA
:1038800000EBC000294901EB8000D0ED040AB0EE46
:10389000600A01226946DFED270A01A800F0A0FEB8
:1038A00021480068204400EBC000204901EB800063
:1038B000D0ED010AB0EE600A00226946F7EE000A78
:1038C00001A800F08DFE1C4890F8420003280FD19B
:1038D000154800882044401C80B240F440750823FD
:1038E00001AA2946154801F0E9F901201449087098
:1038F000114890F8420004280FD10B48008820445A
:10390000401C80B240F48065082301AA29460B4878
:1039100001F0D4F901200A49087000BF641C022C90
:10392000FFF67EAF3EBD0000400000208C0A002064
:1039300000007A440000C84248020020E000002055
:103940005A000020042202608183704700BFFCF708
:1039500077FE01F0C1F81A48007820B900F0B4FBF6
:1039600001201749087001F079F8164890F84200D4
:10397000012804D0134890F84200022802D1FFF732
:1039800093F919E000240AE00F490968214401EB8A
:10399000C1010E4A02EB810000F0E4FB641C022C22
:1039A000F2DB09480068801C074908600846006887
:1039B000062801DB00200860012001F019FBC6E7A2
:1039C0000C00002048020020100000208C0A00207B
:1039D00010B54FF0E020006903F056FC012801D03B
:1039E00003F0A0F810BD000000B593B0302107A887
:1039F000FCF75EFD142102A8FCF75AFD00BF002071
:103A000001902448006840F0805022490860084630
:103A1000006800F08050019000BF00BF00BF002090
:103A200001901D48006840F480401B49086008462A
:103A3000006800F48040019000BF00BF01200790A3
:103A40000004089002200D9041050E9104210F9171
:103A5000A8211091022111910421129107A8FDF7CC
:103A6000BBFF08B1FCF73FFE0F200290022003903D
:103A7000002004904FF4A05005904FF48050069021
:103A8000052102A8FDF746FE08B1FCF72CFE13B095
:103A900000BD00004038024000700040034800684C
:103AA00040F47000014908607047000088ED00E0B4
:103AB00010B50248FEF76BFB10BD0000300100207E
:103AC00010B50248FEF763FB10BD000000020020A5
:103AD00010B50268294B98420ED0B0F1804F0BD040
:103AE000274B984208D0274B984205D0264B984246
:103AF00002D0264B984203D122F070024B681A4341
:103B00001E4B984220D0B0F1804F1DD01C4B9842E4
:103B10001AD01C4B984217D01B4B984214D01B4B09
:103B2000984211D01A4B98420ED01A4B98420BD0A3
:103B3000194B984208D0194B984205D0184B98421F
:103B400002D0184B984203D122F44072CB681A433A
:103B500022F080034C6943EA040202608B68C3626E
:103B60000B688362054B984202D0084B984201D102
:103B70000B6903630123436110BD00000000014095
:103B80000004004000080040000C00400004014018
:103B9000004001400044014000480140001800403E
:103BA000001C00400020004030B50C46816821F424
:103BB0007F4142EA032525432943816030BD0A46FF
:103BC000816821F0700142F007031943816070475A
:103BD00030B50B461446026A056A25F001050562F8
:103BE000816921F0F00141EA041122F00A021A432E
:103BF0008161026230BD30B50B461446056A25F07E
:103C0000100505628169026A21F4704141EA0431BC
:103C100022F0A00242EA03128161026230BD70B557
:103C20000546AC6B0020E085E0842046FEF7A0FB53
:103C300070BD00BF00BF02680C3252E8002F22F4B2
:103C4000907102680C3242E80013002BF3D100BFE0
:103C500000BF00BF0268143252E8002F22F00101B9
:103C60000268143242E80013002BF3D100BF016B4D
:103C700001290ED100BF00BF02680C3252E8002FAC
:103C800022F0100102680C3242E80013002BF3D13D
:103C900000BF202180F83E1000210163704710B55D
:103CA00004462068C06820F040002168C8602020D9
:103CB00084F83D002046FEF796FD002010BDF8B5C3
:103CC000044694F83E00222873D1A068B0F5805FC6
:103CD0000CD1206950B90025A66A20684068C0F35D
:103CE00008003080A06A801CA06215E0A56A00264A
:103CF000A068B0F5805F03D0A06828B9206918B922
:103D000020684068287004E02068406800F07F0068
:103D10002870A06A401CA062E08D401E80B2E08541
:103D2000002844D12068C06820F020002168C860C5
:103D30002068C06820F480702168C86020684069ED
:103D400020F0010021684861202084F83E00206BAB
:103D5000012826D10020206300BF00BF21680C315C
:103D600051E8001F21F0100021680C3141E80002E9
:103D7000002AF3D100BF2068006800F0100010286E
:103D80000AD100BF002000902068006800902068E1
:103D90004068009000BF00BFA18D2046FEF7E7FA03
:103DA00002E02046FEF71EFD0020F8BD01E00020E5
:103DB000FBE70220F9E700002DE9F84F04462068F0
:103DC000006920F44050E1680843216808612169D6
:103DD000A068084361690843E169084300902068CE
:103DE000C06849F20C618843009908432168C860A3
:103DF0002068406920F44070A16908432168486147
:103E000076492068884203D075492068884203D1EA
:103E1000FDF77AFD814602E0FDF766FD8146E06927
:103E2000B0F5004F6CD102206168A0FB0150034641
:103E30001920A9FB007001462A463846FCF774FA9F
:103E40006421B0FBF1F04FEA001A02206168A0FB88
:103E500001510B461920A9FB00712A463846FCF790
:103E600063FA834602206168A0FB015003461920D3
:103E7000A9FB00712A463846FCF756FA6421B0FBCC
:103E8000F1F000EBC00101EB0010ABEB8000322140
:103E900001EBC0006421B0FBF1F000F0F8000AEB88
:103EA000400A02206168A0FB015003461920A9FBCB
:103EB000007001462A463846FCF736FA834602204F
:103EC0006168A0FB015003461920A9FB00712A4636
:103ED0003846FCF729FA6421B0FBF1F000EBC00191
:103EE00001EB0010ABEB8000322101EBC00064213C
:103EF000B0FBF1F000F007005044216888606AE0F0
:103F000004206168A0FB015003461920A9FB007042
:103F100001462A463846FCF707FA824604206168C3
:103F2000A0FB015003461920A9FB007001462A4658
:103F30003846FCF7F9F96421B0FBF1F000EBC00161
:103F400001EB0010AAEB8000322101EB001064218C
:103F5000B0FBF1F000F0F00A04206168A0FB0170F2
:103F600003461920A9FB00513A462846FCF7DCF924
:103F70006421B0FBF1F00AEB001A04206168A0FB99
:103F800001510B461920A9FB00712A463846FCF75F
:103F9000CBF9834604206168A0FB01500346192039
:103FA000A9FB007001462A463846FCF7BDF964219A
:103FB000B0FBF1F000EBC00101EB0010ABEB8000B7
:103FC000322101EB00106421B0FBF1F000F00F0092
:103FD000504421688860BDE8F88F0000001001405F
:103FE00000140140014691F83D00212828D188683D
:103FF000B0F5805F0BD1086948B90A6A1088C0F330
:1040000008000B685860086A801C086205E00B6AAB
:10401000581C086218780B685860C88C401E80B223
:10402000C88458B90868C06820F080000B68D86060
:104030000868C06840F040000B68D86000207047F6
:104040000220FCE710B50248FEF794F910BD00000D
:104050007801002010B50248FEF78CF910BD000071
:10406000BC01002000BFFEE700B58BB00020069029
:104070000790012008900020019002900390049086
:104080000590012009900E200A9001A90D48FCF727
:10409000EDFB08B1FCF727FB0A48FDF770F808B103
:1040A000FCF721FB01210748FCF720FB08B1FCF7D6
:1040B0001AFB02210348FCF719FB08B1FCF713FBBC
:1040C0000BB000BDE000002000B58BB0234890F895
:1040D0004200012804D0214890F8420002280FD164
:1040E0000020069007900120089000200190029087
:1040F0000390049005900120099000200A900FE0A1
:104100000F200690002007900120089000200190C9
:104110000290039004900590012009900E200A90CF
:1041200001A90F48FCF7A2FB08B1FCF7DCFA0C4828
:10413000FDF725F808B1FCF7D6FA01210848FCF78D
:10414000D5FA08B1FCF7CFFA02210548FCF7CEFA00
:1041500008B1FCF7C8FA0BB000BD0000480200200F
:104160000801002010B50446A07830B9D4ED060A45
:10417000B0EE600A607800F057FDA078012806D103
:10418000D4ED070AB0EE600A607800F0DDFCA0789C
:10419000022806D1D4ED080AB0EE600A607800F07B
:1041A000F9FCA078032806D1D4ED050AB0EE600A28
:1041B000607800F013FD10BD1420164908706520CA
:1041C0004870142081F824006621124880F82510D8
:1041D0001420104981F8480067210E4880F84910E2
:1041E00014200C4981F86C0068210A4880F86D1091
:1041F0001420084981F890006921064880F8911040
:104200001420044981F8B4006A21024880F8B510EE
:10421000704700008C0A002010B52DED0C8B044671
:1042200094ED0E0AF7EE000AB4EEE00AF1EE10FA91
:104230001ADC94ED0E0AB5EEC00AF1EE10FA13D3B3
:1042400094ED0F0AF7EE000AB4EEE00AF1EE10FA70
:104250000ADC94ED0F0AB5EEC00AF1EE10FA03D3B2
:10426000618E208E814204DA0020A083BDEC0C8B8D
:1042700010BD94ED0A0AD4ED0B0AB4EE600AF1EE1B
:1042800010FA05D1208E618E484300B2A083EDE77D
:1042900094ED0B0AD4ED0A0A30EE600AB5EEC00ABE
:1042A000F1EE10FA06DD94ED0B0AD4ED0A0A30EEB9
:1042B000600A07E094ED0B0AD4ED0A0A30EE600ABA
:1042C000B1EE400AB0EE408A94ED0E0A20EE089A54
:1042D00094ED0F0A60EE089A38EE490A30EE69AAAA
:1042E000608E4043228E02FB120000EE100AB8EEF0
:1042F000C00AF0EE000A69EE200AC0EE20AAA08EE5
:104300004043628E02FB120000EE100AB8EEC00AB3
:10431000F0EE000A69EEA00A80EE20DA94ED0B0AB6
:10432000D4ED0A0AB4EEE00AF1EE10FA08DD94EDDD
:104330001D0AD4ED0A0AB4EEE00AF1EE10FA11D328
:1043400094ED0B0AD4ED0A0AB4EEE00AF1EE10FA8D
:104350000CD294ED1D0AD4ED0A0AB4EEE00AF1EE97
:1043600010FA03DD208E00B2A083A9E094ED0B0AC1
:10437000D4ED0A0AB4EEE00AF1EE10FA08DD94ED8D
:104380001D0AD4ED0B0AB4EEE00AF1EE10FA11DCCE
:1043900094ED0B0AD4ED0A0AB4EEE00AF1EE10FA3D
:1043A0000CD294ED1D0AD4ED0B0AB4EEE00AF1EE46
:1043B00010FA03D2208E00B2A08381E094ED1D0A92
:1043C000D4ED0A0A30EE600AB5EEC00AF1EE10FA3A
:1043D00006DD94ED1D0AD4ED0A0A30EE600A07E00E
:1043E00094ED1D0AD4ED0A0A30EE600AB1EE400ADF
:1043F000F0EE408AF4EEC98AF1EE10FA23D2208E54
:10440000404300EE100AB8EEC00AF0EE000A6AEE71
:10441000A00A00EEA80A10EE101A084603F064FC89
:1044200041EC1C0BB0EE4C0AF0EE6C0A00F09BF86D
:10443000B0EE40BAF0EE60BA51EC1B0B03F004FB97
:1044400000B2A0833CE039EE0A0AB4EEE80AF1EECD
:1044500010FA03DD608E00B2A08331E0A08E4043ED
:1044600000EE900AB8EEE01AF0EE000A6DEE201AA7
:1044700078EE680AF5EEC00AF1EE10FA02DD78EE89
:10448000680A03E078EE680AF1EE600AB0EE410ACD
:1044900001EEE00A10EE100A03F026FC41EC1C0BC2
:1044A000B0EE4C0AF0EE6C0A00F05DF8B0EE40BAE7
:1044B000F0EE60BA51EC1B0B03F0C6FA00B2A08319
:1044C00094ED0B0AD4ED0A0AB4EEE00AF1EE10FA0C
:1044D00003D2A08B404200B2A08394ED1D0AD4ED1C
:1044E0000B0A30EE600AB0EEC00AF0EE080AB4EE35
:1044F000E00AF1EE10FA03D2012121640020A0832A
:1045000094ED1D0AD4ED0B0A30EE600AB0EEC00A3D
:10451000F0EE080AB4EEE00AF1EE10FA01DD002137
:10452000216400BFA2E6000002480068C0F3022038
:10453000704700000CED00E010B5002804DB0A070E
:10454000130E054A135406E00A07140E034A00F03E
:104550000F031B1FD45410BD00E400E018ED00E071
:10456000EFF30580704700B52DED048BB0EE409A57
:10457000F0EE609A83B051EC190B03F0E9FA41ECCC
:10458000180B18EE100A18EE901A8DED008B00280B
:1045900018BF0120084320F00040C0F17F6000F107
:1045A000E040C00F14D019EE101A19EE900A8DEDEC
:1045B000009B002918BF0121084320F00040C0F1F2
:1045C0007F6000F1E040C00F04BF0120FBF79FFFB8
:1045D000B0EE480A03B0F0EE680ABDEC048B00BDF3
:1045E00070B506460C4615465DB120EE201ABDEEAC
:1045F000C11A11EE100A01B22246304600F028F826
:104600000AE020EE201ABCEEC11A11EE100A81B2A7
:104610002246304600F03FF870BD70B506460C46A5
:10462000154655B120EE201ABCEEC11A11EE101A33
:104630002246304600F03AF809E020EE201ABDEE9E
:10464000C11A11EE101A2246304600F00DF870BD66
:1046500030B5C1F3072415686B1C13604455156809
:104660006B1C1360415530BD30B50C0E15686B1CCA
:1046700013604455C1F3074415686B1C136044551F
:10468000C1F3072415686B1C1360445515686B1C37
:104690001360415530BD30B50C1215686B1C1360AA
:1046A000445515686B1C1360415530BD30B50C0E78
:1046B00015686B1C13604455C1F3074415686B1CE7
:1046C00013604455C1F3072415686B1C13604455EF
:1046D00015686B1C1360415530BD70B50546F0EE92
:1046E000400A0E46144654B13146284600F038F8C8
:1046F00000EE100AB8EE401A81EE200A70BD314675
:10470000284600F007F800EE100AB8EEC01A81EE55
:10471000200AF3E710B502460B685B1CD35C0C68FB
:10472000145D43EA042318B20B689B1C0B6010BD98
:1047300010B502460B68D35C1C060B685B1CD35C8F
:1047400044EA03440B689B1CD35C44EA03230C68D3
:10475000E41C145D43EA04000B681B1D0B6010BDD4
:1047600010B502460B685B1CD35C0C68145D43EA11
:1047700004200B689B1C0B6010BD10B502460B6833
:10478000D35C1C060B685B1CD35C44EA03440B68D7
:104790009B1CD35C44EA03230C68E41C145D43EACD
:1047A00004000B681B1D0B6010BD00002DE9F041DB
:1047B0002DED048B98B005460E462C796868C0F341
:1047C0000F270F2F6ED004DC092F07D00E2F7DD1BD
:1047D0002FE0102F7BD01B2FF9D1DCE000200090C0
:1047E0001394149069463046FFF7C7FF00EE100A95
:1047F000B8EE400A8DED150A69463046FFF78AFF8C
:1048000000EE100AB8EEC00AF2EE040A80EE201A9A
:104810008DED161A69463046FFF77CFF00EE100A50
:10482000B8EEC00ADFED860A80EE201A8DED171A69
:10483000D6E0002000900F94109069463046FFF7B4
:1048400077FF00EE100AB8EEC00A10EE108A40465C
:1048500003F04AFA41EC190B9FED7A0B53EC102B45
:1048600002F09AFF41EC180B02F064FF11906946C8
:104870003046FFF75DFF00EE100AB8EEC00A10EEFA
:10488000108A404603F030FA41EC190B9FED6D0B96
:1048900053EC102B02F080FF41EC180B02F04AFFA2
:1048A00012909DE0002000900B940C9069463046D9
:1048B000FFF73EFF00EE100AB8EEC00A10EE108AB5
:1048C000404603F011FA41EC190B01E087E025E0C6
:1048D0009FED5C0B53EC102B02F05EFF41EC180BCC
:1048E00002F028FF0D9069463046FFF721FF00EEE9
:1048F000100AB8EEC00A10EE108A404603F0F4F930
:1049000041EC190B9FED4F0B53EC102B02F044FFC1
:1049100041EC180B02F00EFF0E9061E000200090B9
:104920000594069069463046FFF7F4FE00EE100A43
:10493000B8EEC00AF2EE040A80EE201A8DED071AD6
:1049400069463046FFF7E6FE00EE100AB8EEC00AF0
:10495000F2EE040A80EE201A8DED081A6946304600
:10496000FFF7D8FE00EE100AB8EEC00AF2EE040A15
:1049700080EE201A8DED091A69463046FFF7CAFE0F
:1049800000EE100AB8EEC00ADFED300A80EE201A01
:104990008DED0A1A24E000200090019402906946EF
:1049A0003046FFF7C5FE049069463046FFF7B2FE79
:1049B00000EE100AB8EEC00A10EE108A404603F06E
:1049C00093F941EC190B9FED220B53EC102B02F0E5
:1049D000E3FE41EC180B02F0ADFE039000E000BFD7
:1049E00000BF9DED150AA4F1650000EBC0001A4957
:1049F00001EB800080ED020A9DED0A0AA4F165003A
:104A000000EBC00001EB800080ED010A9DED170A6C
:104A1000A4F1650000EBC00001EB800080ED040A0A
:104A20009DED160AA4F1650000EBC00001EB8000CB
:104A300080ED030A18B0BDEC048BBDE8F0810000E6
:104A400000007A44000000000088C3400000484293
:104A500000000000000024408C0A00201A4890F852
:104A6000400001282ED1184890F84100012829D192
:104A7000154890F84200012804D0134890F84200ED
:104A800002280AD1002005E00B21104A02EBC012D7
:104A90001160401C0828F7DB14E0002010E0012121
:104AA00000EBC0020A4B03EB820291709FED090AF2
:104AB00000EBC0011A4602EB810181ED070A401CA0
:104AC0000528ECDB70470000480200208C02002023
:104AD0008C0A00200000000019484078012803D10A
:104AE00000201849086002E00120164908601448B7
:104AF0000078012804D100201249091D086003E054
:104B000001201049091D08600D48C078012804D112
:104B100000200C490831086003E0012009490831F0
:104B2000086007488078012804D1002005490C312D
:104B3000086003E0012003490C3108607047000061
:104B40005A0000208002414210B52DED028B82B048
:104B50000446B0EE408A002001909FED0C0A28EE3A
:104B6000000ABDEEC00A10EE101A01AA6846FFF74F
:104B70007BFD0198C3B244F480716A46044800F09A
:104B800073F802B0BDEC028B10BD000000007A4447
:104B90000801002010B52DED028B82B00446B0EE66
:104BA000408A002001909FED0B0A28EE000ABDEE1E
:104BB000C00A10EE101A01AA6846FFF755FD0198C9
:104BC000C3B221466A46044800F04EF802B0BDEC7C
:104BD000028B10BD0050C3470801002010B52DED19
:104BE000028B82B00446B0EE408A002001909FED17
:104BF0000C0A28EE000ABDEEC00A10EE101A01AA37
:104C00006846FFF731FD0198C3B244F480616A46FB
:104C1000044800F029F802B0BDEC028B10BD000082
:104C2000002474490801002010B52DED028B82B0DC
:104C30000446B0EE408A0020019001AABDEEC80AE9
:104C400010EE101A6846FFF70FFD0198C3B244F446
:104C500040716A46034800F007F802B0BDEC028BD1
:104C600010BD000008010020F0B587B006460C46D4
:104C700017461D46082D00DD082508200590002058
:104C8000049004200390029402E00120FCF718FB3A
:104C90003046FBF73BFF0028F7D06B463A4601A9A8
:104CA0003046FBF738FD10B1FBF71DFD02E0012097
:104CB0000149887007B0F0BD5A000020F0B587B0F8
:104CC00006460D4617461C4600200090082C00DDC5
:104CD0000824019500200390049005948DF8180095
:104CE00000BF3046FBF712FF0028FAD00120FCF786
:104CF000E7FA6B463A4601A93046FBF70CFD08B1CE
:104D0000FBF7F1FC07B0F0BD0268A2F20122082A0D
:104D10007DD2DFE802F004193149619BD3F34A7870
:104D20000B7842EA03229F4B5A82CA788B7842EA78
:104D3000032212B29B4B9A824A790B7942EA0322F0
:104D400012B2984BDA822BE14A780B7842EA0323BD
:104D5000944AA2F89230CA788B7842EA032213B2BE
:104D6000904AA2F894304A790B7942EA032213B2AE
:104D70008C4AA2F8963013E14A780B7842EA032372
:104D8000884AA2F81231CA788B7842EA032213B219
:104D9000844AA2F814314A790B7942EA032213B209
:104DA000804AA2F81631FBE04A780B7842EA0323E6
:104DB0007C4AA2F89231CA788B7842EA032213B275
:104DC000784AA2F894314A790B7942EA032213B265
:104DD000744AA2F89631E3E0724A92F80422132A48
:104DE0001CD14A780B7842EA03236E4AA2F80A32B1
:104DF000CA788B7842EA032213B26A4AA2F80C32CC
:104E00004A790B7942EA032213B2664A00E0C6E00F
:104E1000A2F80E328B7982F8103216E04A780B78BD
:104E200042EA03235F4AA2F81232CA788B7842EA38
:104E3000032213B25B4AA2F814324A790B7942EA90
:104E4000032213B2574AA2F81632A9E0554A92F843
:104E50008422132A1AD14A780B7842EA0323514A52
:104E6000A2F88A32CA788B7842EA032213B24D4AFA
:104E7000A2F88C324A790B7942EA032213B2494AEA
:104E8000A2F88E328B7982F8903216E04A780B784D
:104E900042EA0323434AA2F89232CA788B7842EA64
:104EA000032213B23F4AA2F894324A790B7942EABC
:104EB000032213B23B4AA2F8963271E0394A92F8C3
:104EC0000423132A1BD14A780B7842EA0323354A7C
:104ED000A2F80A33CA788B7842EA032213B2314A25
:104EE000A2F80C334A790B7942EA032213B22D4A15
:104EF000A2F80E338B7982F8103317E017E04A7866
:104F00000B7842EA0323274AA2F81233CA788B7837
:104F100042EA032213B2234AA2F814334A790B79E6
:104F200042EA032213B21F4AA2F8163338E01D4AA0
:104F300092F88423132A1AD14A780B7842EA032381
:104F4000184AA2F88A33CA788B7842EA032213B24D
:104F5000144AA2F88C334A790B7942EA032213B23D
:104F6000104AA2F88E338B7982F8903316E04A7893
:104F70000B7842EA03230B4AA2F89233CA788B7863
:104F800042EA032213B2074AA2F894334A790B7912
:104F900042EA032213B2034AA2F8963300E000BFAC
:104FA00000BF70478C020020FCF7B0FAFEF71CFD32
:104FB000FDF790FDFDF72AFDFDF74CFDFDF7F0FD37
:104FC000FDF724FEFDF73EFE0848FDF705F8FFF764
:104FD0004BF8FFF7F1F8FEF70BF900F019F8FDF7C1
:104FE0005DFD00F02BF800BFFEE70000300100205F
:104FF00070B50546FFF7B4FA10B16FF0050404E090
:10500000002415B1284601F0BBFA204670BD00000F
:1050100010B5FFF7A5FA10B16FF0050409E00648D6
:10502000006820B9012004490860002401E04FF025
:10503000FF34204610BD0000B000002070B5FFF71F
:105040008FFA10B16FF005041FE0114800680128C5
:1050500019D100BF801F0021002804DB0A07130EAE
:105060000C4A135406E00A07150E0B4A00F00F0312
:105070001B1FD55400BF00BF02200549086001F086
:10508000FBFA002401E04FF0FF34204670BD000021
:10509000B000002000E400E018ED00E02DE9FF473B
:1050A00080468946144600200390FFF759FA0028ED
:1050B0004ED1B8F1000F4BD0802618258246471EEE
:1050C00044B3206808B1D4F800A0A06900B1A56974
:1050D0002DB1382D03D8207900F0010018B100203F
:1050E00004B0BDE8F087606908B160698608A0680F
:1050F00040B1E0685C2805D3206918B1606908B147
:10510000012708E0A06830B9E06820B9206910B92B
:10511000002700E00027012F0CD12169A0684B4631
:105120003246CDE9005102905146404602F04EF819
:1051300003900DE067B903A8B2B24B465146CDE9E2
:105140000050404602F010F8012801D000200390E2
:105150000398C5E72DE9F04105460E461648076855
:1051600016480068001D01F083F8681C38B936B194
:1051700012480168091D124801F0D0F81AE07C19A4
:105180000E4800684460BC4207D20C480168091D03
:105190000C48006801F0A8F80CE008480168091DF7
:1051A0000948006801F0A0F808480068844201D26C
:1051B00006480460BDE8F081740000206000002013
:1051C000541000206800002064000020900000209F
:1051D00010B5044601F0AEF824480068401C23498D
:1051E00008602348006840B9214804600846006808
:1051F00001280DD100F0FCF90AE01E48006838B91A
:105200001B480068C06AE16A884201D818480460F7
:1052100019480068401C1849086008460068606426
:105220001649E06A0968884202D91449E06A0860B0
:10523000E16A01EB8101124A02EB8100211D01F0BC
:105240006DF801F0A1F80B48006868B108480068E3
:10525000C06AE16A884207D24FF08050094908606D
:10526000BFF34F8FBFF36F8F10BD000070000020A1
:10527000600000207C0000208C00002078000020CE
:10528000A40B002004ED00E008B501F053F812482B
:105290000068E8B9114801F017F8114801F014F856
:1052A0000E48104908600E480F49086000200F4B57
:1052B0000F4A102100900A2001F04EFC06490860B8
:1052C0000846006820B10BA10348006801F01CF9F2
:1052D00001F05AF808BD0000A4000020681000206A
:1052E0007C1000209C000020A000002090100020D6
:1052F000E0100020546D72510000000010B516E05F
:1053000001F018F80C48C068C468201D00F0B0FF18
:105310000A480068401E0949086009480068401EA4
:105320000749086001F030F8204600F05FF80448B3
:1053300000680028E4D110BD40100020700000205B
:105340006C00002070B504460D46206C70B1216CD5
:10535000E0680144E160D4E90210884201D3216889
:10536000E1602846226CE168FBF755F870BD2DE935
:10537000F04104460F4615464FF00008A66B206C1E
:1053800048B9206800282CD1A06802F035F8804682
:105390000020A06025E07DB93946226C6068FBF7EB
:1053A0003AF8216C606808446060D4E901018842E1
:1053B00017D32068606014E03946226CE068FBF780
:1053C0002AF8216CE068411AE1602168E0688842AF
:1053D00003D2216CA068411AE160022D01D106B10F
:1053E000761E701CA0634046BDE8F08110B50446EF
:1053F00094F8590030B9206B00F0E4FF204600F02B
:10540000E1FF1AE094F85900012803D1204600F08A
:10541000D9FF12E094F85900022801D1012000E0E0
:10542000002050B900BF502080F31188BFF34F8F88
:10543000BFF36F8F00BF00BFFEE710BD0146084AF3
:10544000126812680AB9012200E000220A600A68A4
:1054500022B9034A1268D268106800E00020704741
:105460009C00002030B54FF47053174800F007043B
:105470002CB1C01D20F00700134C041B1B1B02465F
:10548000124C22600024114D6C60D018083820F0B6
:1054900007000F4C206000240D4D2D686C600C4DF2
:1054A0002D682C601146441A4C60094C24680C602D
:1054B000084D4C682C60084D4C682C604FF000443F
:1054C000064D2C6030BD000038180020B4000020CC
:1054D000BC000020C4000020C0000020D00000203C
:1054E00000BFFFF70BFF064800680128F9D94FF00D
:1054F000805004490860BFF34F8FBFF36F8FF0E710
:10550000A40B002004ED00E02DE9F04106460D4615
:1055100017469846069C0DB9246000E02760E663B4
:1055200025640121204601F087FB84F84C80BDE80A
:10553000F0812DE9F05F82460E4690469B460A9F19
:105540000C9C4FEA8801A522206BFAF7A9FFA8F16D
:105550000100216B01EB800929F0070909F0070020
:1055600008B9012000E0002050B900BF502080F3AE
:105570001188BFF34F8FBFF36F8F00BF00BFFEE7EF
:1055800086B1002507E0715D04F134004155705D7E
:1055900000B902E06D1C102DF5D300BF002143209F
:1055A000015502E0002084F83400382F00D337275B
:1055B000E762E76400202065201D00F092FE04F100
:1055C000180000F08EFE2461C7F13800A06164620B
:1055D0000020606584F858005A465146484600F05D
:1055E00071FB20600B9808B10B980460BDE8F09F38
:1055F00010B5002407E004EB84010F4A02EB8100A0
:1056000000F062FE641C382CF5D30C4800F05CFE00
:105610000B4800F059FE0B4800F056FE0A4800F017
:1056200053FE0A4800F050FE044809490860044847
:105630000849086010BD0000A40B002004100020E1
:10564000181000202C1000204010002054100020C2
:10565000640000206800002010B50146164800E0F4
:10566000006803688B42FBD30246436813448B42B5
:1056700004D143684C682344436001460A464B68A2
:1056800013440468A34211D10C4C03682468A3425C
:1056900008D04B680468646823444B6003681B6847
:1056A0000B6005E0054B1B680B6001E003680B60B5
:1056B000884200D0016010BDB4000020BC00002072
:1056C0002DE9F04104460D4616461F464FF00008EE
:1056D00065602461B5420CD8F01BA169884202D3F1
:1056E0004FF0010811E0211D0948006800F0FCFDA1
:1056F0000BE0BE4204D2BD4202D34FF0010804E0E9
:10570000211D0448006800F0EFFD4046BDE8F0812F
:10571000A00000209C00002070B5054600F00AFEA5
:10572000A86B08B9012400E0002400F02DFE2046FB
:1057300070BD70B5054600F0FDFDA86BE96B8842B1
:1057400001D1012400E0002400F01EFE204670BDBF
:10575000F8B505460F461A480068C068C468201DA1
:1057600000F086FD94F8280000F00400E8B1A0697C
:1057700041192B463A462046FFF7A2FFD8B1002038
:1057800003462A4601460090204601F091FF064656
:1057900056B900BF502080F31188BFF34F8FBFF37D
:1057A0006F8F00BF00BFFEE705E094F8280020F0EF
:1057B000010084F828002046216A8847F8BD0000CF
:1057C0009C000020F0B587B0A0E00398002811DA13
:1057D00004AE56B900BF502080F31188BFF34F8F3D
:1057E000BFF36F8F00BF00BFFEE7D6E90020B168AE
:1057F000904700BF03980028E6DB059C606908B964
:10580000012000E0002010B9201D00F031FD02A8A9
:1058100000F0DEF8054603980A2875D2DFE800F0AC
:1058200009050739416306083A4200BF00BF00BFBF
:1058300000BF94F8280040F0010084F82800049884
:10584000A269811803462A462046FFF739FFF8B1BE
:105850002046216A884794F8280000F00400B8B177
:10586000002000900498A1694218002319462046A0
:1058700001F01EFF074657B900BF502080F3118882
:10588000BFF34F8FBFF36F8F00BF00BFFEE700BFB6
:105890003BE000BF94F8280020F0010084F82800C5
:1058A00033E000BF94F8280040F0010084F828009D
:1058B0000498A061A06908B1012000E0002050B95F
:1058C00000BF502080F31188BFF34F8FBFF36F8F5D
:1058D00000BF00BFFEE7A06941192B462A462046BB
:1058E000FFF7EEFE11E094F8280000F0020018B96E
:1058F000204600F067FD05E094F8280020F0010044
:1059000084F8280001E0FFE700BF00BF002203A9E0
:105910000448006801F02EFB00287FF456AF07B062
:10592000F0BD0000A4000020F8B505460C4600F0CC
:10593000FFFE684600F04CF80646009820BB44B9CC
:10594000B54206D801F0F6FD31462846FFF700FFC4
:105950001CE03CB10E480068006808B9012000E076
:1059600000200446A91B22460A48006800F0E2FD18
:1059700001F0E0FD50B94FF0805007490860BFF3D7
:105980004F8FBFF36F8F01E001F0D4FDF8BD000031
:10599000A0000020A400002004ED00E00A490968EE
:1059A000096809B9012100E0002121B14FF0FF3160
:1059B000064A116006E004490968C968C868034AD4
:1059C00041681160704700006400002090000020D2
:1059D00070B5044601F068FC05460748006885423A
:1059E00004D200F00BF80120206001E000202060CC
:1059F00001480560284670BDAC0000202DE9F84341
:105A000034E025480068C068056823480068C0681D
:105A1000C468201D00F02CFC2046216A884794F8B9
:105A2000280000F0040008B3A0694619AE4207D967
:105A300066602461211D1848006800F055FC15E0DF
:105A4000002003462A4601460090204601F030FE21
:105A5000074657B900BF502080F31188BFF34F8F1E
:105A6000BFF36F8F00BF00BFFEE700BF0A480068AA
:105A7000006808B9012000E000200028C1D00648D5
:105A8000D0F8008005480068034908600348C0F862
:105A90000080BDE8F88300009C000020A0000020EA
:105AA0000E480068401C08B9012000E0002050B9F1
:105AB00000BF502080F31188BFF34F8FBFF36F8F6B
:105AC00000BF00BFFEE700BF502080F31188BFF386
:105AD0004F8FBFF36F8F00BF00BFFEE7D4000020E1
